{
  "address": "0xE6C54D970595BCFD5D65EdECc567C23DbE4aEA97",
  "abi": [
    {
      "inputs": [
        {
          "internalType": "string",
          "name": "name_",
          "type": "string"
        },
        {
          "internalType": "string",
          "name": "symbol_",
          "type": "string"
        }
      ],
      "stateMutability": "nonpayable",
      "type": "constructor"
    },
    {
      "inputs": [],
      "name": "AccessControlBadConfirmation",
      "type": "error"
    },
    {
      "inputs": [
        {
          "internalType": "address",
          "name": "account",
          "type": "address"
        },
        {
          "internalType": "bytes32",
          "name": "neededRole",
          "type": "bytes32"
        }
      ],
      "name": "AccessControlUnauthorizedAccount",
      "type": "error"
    },
    {
      "inputs": [
        {
          "internalType": "address",
          "name": "sender",
          "type": "address"
        },
        {
          "internalType": "uint256",
          "name": "tokenId",
          "type": "uint256"
        },
        {
          "internalType": "address",
          "name": "owner",
          "type": "address"
        }
      ],
      "name": "ERC721IncorrectOwner",
      "type": "error"
    },
    {
      "inputs": [
        {
          "internalType": "address",
          "name": "operator",
          "type": "address"
        },
        {
          "internalType": "uint256",
          "name": "tokenId",
          "type": "uint256"
        }
      ],
      "name": "ERC721InsufficientApproval",
      "type": "error"
    },
    {
      "inputs": [
        {
          "internalType": "address",
          "name": "approver",
          "type": "address"
        }
      ],
      "name": "ERC721InvalidApprover",
      "type": "error"
    },
    {
      "inputs": [
        {
          "internalType": "address",
          "name": "operator",
          "type": "address"
        }
      ],
      "name": "ERC721InvalidOperator",
      "type": "error"
    },
    {
      "inputs": [
        {
          "internalType": "address",
          "name": "owner",
          "type": "address"
        }
      ],
      "name": "ERC721InvalidOwner",
      "type": "error"
    },
    {
      "inputs": [
        {
          "internalType": "address",
          "name": "receiver",
          "type": "address"
        }
      ],
      "name": "ERC721InvalidReceiver",
      "type": "error"
    },
    {
      "inputs": [
        {
          "internalType": "address",
          "name": "sender",
          "type": "address"
        }
      ],
      "name": "ERC721InvalidSender",
      "type": "error"
    },
    {
      "inputs": [
        {
          "internalType": "uint256",
          "name": "tokenId",
          "type": "uint256"
        }
      ],
      "name": "ERC721NonexistentToken",
      "type": "error"
    },
    {
      "anonymous": false,
      "inputs": [
        {
          "indexed": true,
          "internalType": "address",
          "name": "owner",
          "type": "address"
        },
        {
          "indexed": true,
          "internalType": "address",
          "name": "approved",
          "type": "address"
        },
        {
          "indexed": true,
          "internalType": "uint256",
          "name": "tokenId",
          "type": "uint256"
        }
      ],
      "name": "Approval",
      "type": "event"
    },
    {
      "anonymous": false,
      "inputs": [
        {
          "indexed": true,
          "internalType": "address",
          "name": "owner",
          "type": "address"
        },
        {
          "indexed": true,
          "internalType": "address",
          "name": "operator",
          "type": "address"
        },
        {
          "indexed": false,
          "internalType": "bool",
          "name": "approved",
          "type": "bool"
        }
      ],
      "name": "ApprovalForAll",
      "type": "event"
    },
    {
      "anonymous": false,
      "inputs": [
        {
          "indexed": true,
          "internalType": "bytes32",
          "name": "invoiceId",
          "type": "bytes32"
        },
        {
          "indexed": true,
          "internalType": "uint256",
          "name": "tokenId",
          "type": "uint256"
        },
        {
          "indexed": false,
          "internalType": "string",
          "name": "oldMetaURI",
          "type": "string"
        },
        {
          "indexed": false,
          "internalType": "string",
          "name": "newMetaURI",
          "type": "string"
        }
      ],
      "name": "InvoiceMetaUpdated",
      "type": "event"
    },
    {
      "anonymous": false,
      "inputs": [
        {
          "indexed": true,
          "internalType": "bytes32",
          "name": "invoiceId",
          "type": "bytes32"
        },
        {
          "indexed": true,
          "internalType": "uint256",
          "name": "tokenId",
          "type": "uint256"
        },
        {
          "indexed": true,
          "internalType": "address",
          "name": "issuer",
          "type": "address"
        },
        {
          "indexed": false,
          "internalType": "address",
          "name": "debtor",
          "type": "address"
        },
        {
          "indexed": false,
          "internalType": "uint256",
          "name": "amount",
          "type": "uint256"
        },
        {
          "indexed": false,
          "internalType": "uint256",
          "name": "dueDate",
          "type": "uint256"
        },
        {
          "indexed": false,
          "internalType": "address",
          "name": "currency",
          "type": "address"
        }
      ],
      "name": "InvoiceMinted",
      "type": "event"
    },
    {
      "anonymous": false,
      "inputs": [
        {
          "indexed": true,
          "internalType": "bytes32",
          "name": "invoiceId",
          "type": "bytes32"
        },
        {
          "indexed": true,
          "internalType": "uint256",
          "name": "tokenId",
          "type": "uint256"
        },
        {
          "indexed": false,
          "internalType": "enum InvoiceStatus",
          "name": "oldStatus",
          "type": "uint8"
        },
        {
          "indexed": false,
          "internalType": "enum InvoiceStatus",
          "name": "newStatus",
          "type": "uint8"
        }
      ],
      "name": "InvoiceStatusUpdated",
      "type": "event"
    },
    {
      "anonymous": false,
      "inputs": [
        {
          "indexed": true,
          "internalType": "bytes32",
          "name": "role",
          "type": "bytes32"
        },
        {
          "indexed": true,
          "internalType": "bytes32",
          "name": "previousAdminRole",
          "type": "bytes32"
        },
        {
          "indexed": true,
          "internalType": "bytes32",
          "name": "newAdminRole",
          "type": "bytes32"
        }
      ],
      "name": "RoleAdminChanged",
      "type": "event"
    },
    {
      "anonymous": false,
      "inputs": [
        {
          "indexed": true,
          "internalType": "bytes32",
          "name": "role",
          "type": "bytes32"
        },
        {
          "indexed": true,
          "internalType": "address",
          "name": "account",
          "type": "address"
        },
        {
          "indexed": true,
          "internalType": "address",
          "name": "sender",
          "type": "address"
        }
      ],
      "name": "RoleGranted",
      "type": "event"
    },
    {
      "anonymous": false,
      "inputs": [
        {
          "indexed": true,
          "internalType": "bytes32",
          "name": "role",
          "type": "bytes32"
        },
        {
          "indexed": true,
          "internalType": "address",
          "name": "account",
          "type": "address"
        },
        {
          "indexed": true,
          "internalType": "address",
          "name": "sender",
          "type": "address"
        }
      ],
      "name": "RoleRevoked",
      "type": "event"
    },
    {
      "anonymous": false,
      "inputs": [
        {
          "indexed": true,
          "internalType": "address",
          "name": "from",
          "type": "address"
        },
        {
          "indexed": true,
          "internalType": "address",
          "name": "to",
          "type": "address"
        },
        {
          "indexed": true,
          "internalType": "uint256",
          "name": "tokenId",
          "type": "uint256"
        }
      ],
      "name": "Transfer",
      "type": "event"
    },
    {
      "inputs": [],
      "name": "ADMIN_ROLE",
      "outputs": [
        {
          "internalType": "bytes32",
          "name": "",
          "type": "bytes32"
        }
      ],
      "stateMutability": "view",
      "type": "function"
    },
    {
      "inputs": [],
      "name": "DEFAULT_ADMIN_ROLE",
      "outputs": [
        {
          "internalType": "bytes32",
          "name": "",
          "type": "bytes32"
        }
      ],
      "stateMutability": "view",
      "type": "function"
    },
    {
      "inputs": [],
      "name": "MINTER_ROLE",
      "outputs": [
        {
          "internalType": "bytes32",
          "name": "",
          "type": "bytes32"
        }
      ],
      "stateMutability": "view",
      "type": "function"
    },
    {
      "inputs": [
        {
          "internalType": "address",
          "name": "to",
          "type": "address"
        },
        {
          "internalType": "uint256",
          "name": "tokenId",
          "type": "uint256"
        }
      ],
      "name": "approve",
      "outputs": [],
      "stateMutability": "nonpayable",
      "type": "function"
    },
    {
      "inputs": [
        {
          "internalType": "address",
          "name": "owner",
          "type": "address"
        }
      ],
      "name": "balanceOf",
      "outputs": [
        {
          "internalType": "uint256",
          "name": "",
          "type": "uint256"
        }
      ],
      "stateMutability": "view",
      "type": "function"
    },
    {
      "inputs": [
        {
          "internalType": "bytes32",
          "name": "invoiceId",
          "type": "bytes32"
        }
      ],
      "name": "exists",
      "outputs": [
        {
          "internalType": "bool",
          "name": "",
          "type": "bool"
        }
      ],
      "stateMutability": "view",
      "type": "function"
    },
    {
      "inputs": [
        {
          "internalType": "uint256",
          "name": "tokenId",
          "type": "uint256"
        }
      ],
      "name": "getApproved",
      "outputs": [
        {
          "internalType": "address",
          "name": "",
          "type": "address"
        }
      ],
      "stateMutability": "view",
      "type": "function"
    },
    {
      "inputs": [
        {
          "internalType": "bytes32",
          "name": "invoiceId",
          "type": "bytes32"
        }
      ],
      "name": "getInvoiceDataById",
      "outputs": [
        {
          "components": [
            {
              "internalType": "bytes32",
              "name": "invoiceId",
              "type": "bytes32"
            },
            {
              "internalType": "address",
              "name": "issuer",
              "type": "address"
            },
            {
              "internalType": "address",
              "name": "debtor",
              "type": "address"
            },
            {
              "internalType": "uint256",
              "name": "amount",
              "type": "uint256"
            },
            {
              "internalType": "uint256",
              "name": "dueDate",
              "type": "uint256"
            },
            {
              "internalType": "address",
              "name": "currency",
              "type": "address"
            }
          ],
          "internalType": "struct InvoiceCoreData",
          "name": "data",
          "type": "tuple"
        },
        {
          "internalType": "enum InvoiceStatus",
          "name": "status",
          "type": "uint8"
        },
        {
          "internalType": "string",
          "name": "metaURI",
          "type": "string"
        },
        {
          "internalType": "uint256",
          "name": "tokenId",
          "type": "uint256"
        }
      ],
      "stateMutability": "view",
      "type": "function"
    },
    {
      "inputs": [
        {
          "internalType": "uint256",
          "name": "tokenId",
          "type": "uint256"
        }
      ],
      "name": "getInvoiceDataByToken",
      "outputs": [
        {
          "components": [
            {
              "internalType": "bytes32",
              "name": "invoiceId",
              "type": "bytes32"
            },
            {
              "internalType": "address",
              "name": "issuer",
              "type": "address"
            },
            {
              "internalType": "address",
              "name": "debtor",
              "type": "address"
            },
            {
              "internalType": "uint256",
              "name": "amount",
              "type": "uint256"
            },
            {
              "internalType": "uint256",
              "name": "dueDate",
              "type": "uint256"
            },
            {
              "internalType": "address",
              "name": "currency",
              "type": "address"
            }
          ],
          "internalType": "struct InvoiceCoreData",
          "name": "data",
          "type": "tuple"
        },
        {
          "internalType": "enum InvoiceStatus",
          "name": "status",
          "type": "uint8"
        },
        {
          "internalType": "string",
          "name": "metaURI",
          "type": "string"
        },
        {
          "internalType": "bytes32",
          "name": "invoiceId",
          "type": "bytes32"
        }
      ],
      "stateMutability": "view",
      "type": "function"
    },
    {
      "inputs": [
        {
          "internalType": "bytes32",
          "name": "role",
          "type": "bytes32"
        }
      ],
      "name": "getRoleAdmin",
      "outputs": [
        {
          "internalType": "bytes32",
          "name": "",
          "type": "bytes32"
        }
      ],
      "stateMutability": "view",
      "type": "function"
    },
    {
      "inputs": [
        {
          "internalType": "bytes32",
          "name": "role",
          "type": "bytes32"
        },
        {
          "internalType": "address",
          "name": "account",
          "type": "address"
        }
      ],
      "name": "grantRole",
      "outputs": [],
      "stateMutability": "nonpayable",
      "type": "function"
    },
    {
      "inputs": [
        {
          "internalType": "bytes32",
          "name": "role",
          "type": "bytes32"
        },
        {
          "internalType": "address",
          "name": "account",
          "type": "address"
        }
      ],
      "name": "hasRole",
      "outputs": [
        {
          "internalType": "bool",
          "name": "",
          "type": "bool"
        }
      ],
      "stateMutability": "view",
      "type": "function"
    },
    {
      "inputs": [
        {
          "internalType": "address",
          "name": "owner",
          "type": "address"
        },
        {
          "internalType": "address",
          "name": "operator",
          "type": "address"
        }
      ],
      "name": "isApprovedForAll",
      "outputs": [
        {
          "internalType": "bool",
          "name": "",
          "type": "bool"
        }
      ],
      "stateMutability": "view",
      "type": "function"
    },
    {
      "inputs": [
        {
          "components": [
            {
              "internalType": "bytes32",
              "name": "invoiceId",
              "type": "bytes32"
            },
            {
              "internalType": "address",
              "name": "issuer",
              "type": "address"
            },
            {
              "internalType": "address",
              "name": "debtor",
              "type": "address"
            },
            {
              "internalType": "uint256",
              "name": "amount",
              "type": "uint256"
            },
            {
              "internalType": "uint256",
              "name": "dueDate",
              "type": "uint256"
            },
            {
              "internalType": "address",
              "name": "currency",
              "type": "address"
            }
          ],
          "internalType": "struct InvoiceCoreData",
          "name": "data",
          "type": "tuple"
        },
        {
          "internalType": "string",
          "name": "metaURI",
          "type": "string"
        }
      ],
      "name": "mintInvoice",
      "outputs": [
        {
          "internalType": "uint256",
          "name": "tokenId",
          "type": "uint256"
        }
      ],
      "stateMutability": "nonpayable",
      "type": "function"
    },
    {
      "inputs": [],
      "name": "name",
      "outputs": [
        {
          "internalType": "string",
          "name": "",
          "type": "string"
        }
      ],
      "stateMutability": "view",
      "type": "function"
    },
    {
      "inputs": [
        {
          "internalType": "uint256",
          "name": "tokenId",
          "type": "uint256"
        }
      ],
      "name": "ownerOf",
      "outputs": [
        {
          "internalType": "address",
          "name": "",
          "type": "address"
        }
      ],
      "stateMutability": "view",
      "type": "function"
    },
    {
      "inputs": [
        {
          "internalType": "bytes32",
          "name": "invoiceId",
          "type": "bytes32"
        }
      ],
      "name": "ownerOfInvoice",
      "outputs": [
        {
          "internalType": "address",
          "name": "",
          "type": "address"
        }
      ],
      "stateMutability": "view",
      "type": "function"
    },
    {
      "inputs": [
        {
          "internalType": "bytes32",
          "name": "role",
          "type": "bytes32"
        },
        {
          "internalType": "address",
          "name": "callerConfirmation",
          "type": "address"
        }
      ],
      "name": "renounceRole",
      "outputs": [],
      "stateMutability": "nonpayable",
      "type": "function"
    },
    {
      "inputs": [
        {
          "internalType": "bytes32",
          "name": "role",
          "type": "bytes32"
        },
        {
          "internalType": "address",
          "name": "account",
          "type": "address"
        }
      ],
      "name": "revokeRole",
      "outputs": [],
      "stateMutability": "nonpayable",
      "type": "function"
    },
    {
      "inputs": [
        {
          "internalType": "address",
          "name": "from",
          "type": "address"
        },
        {
          "internalType": "address",
          "name": "to",
          "type": "address"
        },
        {
          "internalType": "uint256",
          "name": "tokenId",
          "type": "uint256"
        }
      ],
      "name": "safeTransferFrom",
      "outputs": [],
      "stateMutability": "nonpayable",
      "type": "function"
    },
    {
      "inputs": [
        {
          "internalType": "address",
          "name": "from",
          "type": "address"
        },
        {
          "internalType": "address",
          "name": "to",
          "type": "address"
        },
        {
          "internalType": "uint256",
          "name": "tokenId",
          "type": "uint256"
        },
        {
          "internalType": "bytes",
          "name": "data",
          "type": "bytes"
        }
      ],
      "name": "safeTransferFrom",
      "outputs": [],
      "stateMutability": "nonpayable",
      "type": "function"
    },
    {
      "inputs": [
        {
          "internalType": "address",
          "name": "operator",
          "type": "address"
        },
        {
          "internalType": "bool",
          "name": "approved",
          "type": "bool"
        }
      ],
      "name": "setApprovalForAll",
      "outputs": [],
      "stateMutability": "nonpayable",
      "type": "function"
    },
    {
      "inputs": [
        {
          "internalType": "bytes32",
          "name": "invoiceId",
          "type": "bytes32"
        }
      ],
      "name": "statusOf",
      "outputs": [
        {
          "internalType": "enum InvoiceStatus",
          "name": "",
          "type": "uint8"
        }
      ],
      "stateMutability": "view",
      "type": "function"
    },
    {
      "inputs": [
        {
          "internalType": "bytes4",
          "name": "interfaceId",
          "type": "bytes4"
        }
      ],
      "name": "supportsInterface",
      "outputs": [
        {
          "internalType": "bool",
          "name": "",
          "type": "bool"
        }
      ],
      "stateMutability": "view",
      "type": "function"
    },
    {
      "inputs": [],
      "name": "symbol",
      "outputs": [
        {
          "internalType": "string",
          "name": "",
          "type": "string"
        }
      ],
      "stateMutability": "view",
      "type": "function"
    },
    {
      "inputs": [
        {
          "internalType": "bytes32",
          "name": "invoiceId",
          "type": "bytes32"
        }
      ],
      "name": "tokenOfInvoice",
      "outputs": [
        {
          "internalType": "uint256",
          "name": "",
          "type": "uint256"
        }
      ],
      "stateMutability": "view",
      "type": "function"
    },
    {
      "inputs": [
        {
          "internalType": "uint256",
          "name": "tokenId",
          "type": "uint256"
        }
      ],
      "name": "tokenURI",
      "outputs": [
        {
          "internalType": "string",
          "name": "",
          "type": "string"
        }
      ],
      "stateMutability": "view",
      "type": "function"
    },
    {
      "inputs": [
        {
          "internalType": "address",
          "name": "from",
          "type": "address"
        },
        {
          "internalType": "address",
          "name": "to",
          "type": "address"
        },
        {
          "internalType": "uint256",
          "name": "tokenId",
          "type": "uint256"
        }
      ],
      "name": "transferFrom",
      "outputs": [],
      "stateMutability": "nonpayable",
      "type": "function"
    },
    {
      "inputs": [
        {
          "internalType": "bytes32",
          "name": "invoiceId",
          "type": "bytes32"
        },
        {
          "internalType": "string",
          "name": "newMetaURI",
          "type": "string"
        }
      ],
      "name": "updateMetaURI",
      "outputs": [],
      "stateMutability": "nonpayable",
      "type": "function"
    },
    {
      "inputs": [
        {
          "internalType": "bytes32",
          "name": "invoiceId",
          "type": "bytes32"
        },
        {
          "internalType": "enum InvoiceStatus",
          "name": "newStatus",
          "type": "uint8"
        }
      ],
      "name": "updateStatus",
      "outputs": [],
      "stateMutability": "nonpayable",
      "type": "function"
    }
  ],
  "transactionHash": "0x6e21654d78cc8b8e197e50c5ba64589d483287d912ab57bfa17625fad8ef9a2c",
  "args": [
    "TIFA Invoice Token",
    "TIFA"
  ],
  "numDeployments": 1,
  "solcInputHash": "797c53e375c923f5275de2744b15e064",
  "bytecode": "0x60806040523480156200001157600080fd5b50604051620024a1380380620024a1833981016040819052620000349162000240565b8181600062000044838262000339565b50600162000053828262000339565b506200006591506000905033620000c8565b50620000927fa49807205ce4d355092ef5a8a18f56e8913cf4a201fbe287825b095693c2177533620000c8565b50620000bf7f9f2df0fed2c77648de5860a4cc508cd0818c85b8b8a1ab4ceeef8d981c8956a633620000c8565b50505062000405565b60008281526006602090815260408083206001600160a01b038516845290915281205460ff16620001715760008381526006602090815260408083206001600160a01b03861684529091529020805460ff19166001179055620001283390565b6001600160a01b0316826001600160a01b0316847f2f8788117e7eff1d82e926ec794901d17c78024a50270940304540a733656f0d60405160405180910390a450600162000175565b5060005b92915050565b634e487b7160e01b600052604160045260246000fd5b600082601f830112620001a357600080fd5b81516001600160401b0380821115620001c057620001c06200017b565b604051601f8301601f19908116603f01168101908282118183101715620001eb57620001eb6200017b565b816040528381526020925086838588010111156200020857600080fd5b600091505b838210156200022c57858201830151818301840152908201906200020d565b600093810190920192909252949350505050565b600080604083850312156200025457600080fd5b82516001600160401b03808211156200026c57600080fd5b6200027a8683870162000191565b935060208501519150808211156200029157600080fd5b50620002a08582860162000191565b9150509250929050565b600181811c90821680620002bf57607f821691505b602082108103620002e057634e487b7160e01b600052602260045260246000fd5b50919050565b601f8211156200033457600081815260208120601f850160051c810160208610156200030f5750805b601f850160051c820191505b8181101562000330578281556001016200031b565b5050505b505050565b81516001600160401b038111156200035557620003556200017b565b6200036d81620003668454620002aa565b84620002e6565b602080601f831160018114620003a557600084156200038c5750858301515b600019600386901b1c1916600185901b17855562000330565b600085815260208120601f198616915b82811015620003d657888601518255948401946001909101908401620003b5565b5085821015620003f55787850151600019600388901b60f8161c191681555b5050505050600190811b01905550565b61208c80620004156000396000f3fe608060405234801561001057600080fd5b50600436106101da5760003560e01c80636352211e11610104578063a217fddf116100a2578063c87b56dd11610071578063c87b56dd14610463578063d539139314610476578063d547741f1461049d578063e985e9c5146104b057600080fd5b8063a217fddf14610405578063a22cb4651461040d578063b88d4fde14610420578063c7df14e21461043357600080fd5b806375b238fc116100de57806375b238fc146103b05780638475f7f0146103d757806391d14854146103ea57806395d89b41146103fd57600080fd5b80636352211e1461036a578063704eac221461037d57806370a082311461039d57600080fd5b8063248a9ca31161017c57806338a699a41161014b57806338a699a41461030f57806341fc389f1461033157806342842e0e1461034457806343a4eac61461035757600080fd5b8063248a9ca3146102a55780632f2ff15d146102d657806330265e1f146102e957806336568abe146102fc57600080fd5b8063081812fc116101b8578063081812fc14610231578063095ea7b31461025c57806315ade0941461026f57806323b872dd1461029257600080fd5b806301ffc9a7146101df578063054372ed1461020757806306fdde031461021c575b600080fd5b6101f26101ed3660046118c0565b6104c3565b60405190151581526020015b60405180910390f35b61021a6102153660046118dd565b6104d4565b005b61022461062d565b6040516101fe9190611961565b61024461023f366004611974565b6106bf565b6040516001600160a01b0390911681526020016101fe565b61021a61026a3660046119a2565b6106e8565b61028261027d366004611974565b6106f7565b6040516101fe9493929190611a06565b61021a6102a0366004611a8a565b6108b4565b6102c86102b3366004611974565b60009081526006602052604090206001015490565b6040519081526020016101fe565b61021a6102e4366004611acb565b61093f565b61021a6102f7366004611b39565b610964565b61021a61030a366004611acb565b610b3f565b6101f261031d366004611974565b600090815260086020526040902054151590565b6102c861033f366004611b85565b610b77565b61021a610352366004611a8a565b610d74565b610244610365366004611974565b610d8f565b610244610378366004611974565b610db3565b6102c861038b366004611974565b60009081526008602052604090205490565b6102c86103ab366004611bc7565b610dbe565b6102c87fa49807205ce4d355092ef5a8a18f56e8913cf4a201fbe287825b095693c2177581565b6102826103e5366004611974565b610e06565b6101f26103f8366004611acb565b610eef565b610224610f1a565b6102c8600081565b61021a61041b366004611be4565b610f29565b61021a61042e366004611c2d565b610f34565b610456610441366004611974565b6000908152600a602052604090205460ff1690565b6040516101fe9190611d0d565b610224610471366004611974565b610f4c565b6102c87f9f2df0fed2c77648de5860a4cc508cd0818c85b8b8a1ab4ceeef8d981c8956a681565b61021a6104ab366004611acb565b610fc0565b6101f26104be366004611d1b565b610fe5565b60006104ce82611013565b92915050565b6104fe7fa49807205ce4d355092ef5a8a18f56e8913cf4a201fbe287825b095693c2177533610eef565b8061052e575061052e7f9f2df0fed2c77648de5860a4cc508cd0818c85b8b8a1ab4ceeef8d981c8956a633610eef565b61057f5760405162461bcd60e51b815260206004820152601a60248201527f496e766f696365546f6b656e3a206d697373696e6720726f6c6500000000000060448201526064015b60405180910390fd5b60008281526008602052604081205490036105ac5760405162461bcd60e51b815260040161057690611d49565b600082815260086020908152604080832054600a909252909120805460ff811691849160ff191660018360068111156105e7576105e76119ce565b021790555081847fe1828d1952da1a17c628d32ca833f8b472b37e2a43939a42648ddb8e0df1ca11838660405161061f929190611d80565b60405180910390a350505050565b60606000805461063c90611d9b565b80601f016020809104026020016040519081016040528092919081815260200182805461066890611d9b565b80156106b55780601f1061068a576101008083540402835291602001916106b5565b820191906000526020600020905b81548152906001019060200180831161069857829003601f168201915b5050505050905090565b60006106ca82611038565b506000828152600460205260409020546001600160a01b03166104ce565b6106f3828233611071565b5050565b6040805160c081018252600080825260208201819052918101829052606081018290526080810182905260a081019190915260006060818061074e866000908152600260205260409020546001600160a01b031690565b6001600160a01b0316036107a45760405162461bcd60e51b815260206004820181905260248201527f496e766f696365546f6b656e3a206e6f6e2d6578697374656e7420746f6b656e6044820152606401610576565b506000848152600960209081526040808320815160c081018352815480825260018301546001600160a01b03908116838701526002840154811683860152600384015460608401526004840154608084015260059093015490921660a0820152818552600a845282852054600b90945291909320805491965060ff909216945061082d90611d9b565b80601f016020809104026020016040519081016040528092919081815260200182805461085990611d9b565b80156108a65780601f1061087b576101008083540402835291602001916108a6565b820191906000526020600020905b81548152906001019060200180831161088957829003601f168201915b505050505091509193509193565b6001600160a01b0382166108de57604051633250574960e11b815260006004820152602401610576565b60006108eb83833361107e565b9050836001600160a01b0316816001600160a01b031614610939576040516364283d7b60e01b81526001600160a01b0380861660048301526024820184905282166044820152606401610576565b50505050565b60008281526006602052604090206001015461095a81611177565b6109398383611184565b61098e7fa49807205ce4d355092ef5a8a18f56e8913cf4a201fbe287825b095693c2177533610eef565b806109be57506109be7f9f2df0fed2c77648de5860a4cc508cd0818c85b8b8a1ab4ceeef8d981c8956a633610eef565b610a0a5760405162461bcd60e51b815260206004820152601a60248201527f496e766f696365546f6b656e3a206d697373696e6720726f6c650000000000006044820152606401610576565b6000838152600860205260408120549003610a375760405162461bcd60e51b815260040161057690611d49565b600083815260086020908152604080832054600b90925282208054919291610a5e90611d9b565b80601f0160208091040260200160405190810160405280929190818152602001828054610a8a90611d9b565b8015610ad75780601f10610aac57610100808354040283529160200191610ad7565b820191906000526020600020905b815481529060010190602001808311610aba57829003601f168201915b5050506000888152600b60205260409020929350610afa91508590508683611e1b565b5081857fa90853e23463a6c39ccc6f1c4ff9cee3d87ed660adbf38d71d6b3b5f239554f5838787604051610b3093929190611edb565b60405180910390a35050505050565b6001600160a01b0381163314610b685760405163334bd91960e11b815260040160405180910390fd5b610b728282611218565b505050565b600033610b8a6040860160208701611bc7565b6001600160a01b031614610be05760405162461bcd60e51b815260206004820152601d60248201527f496e766f696365546f6b656e3a20697373756572206d69736d617463680000006044820152606401610576565b833560009081526008602052604090205415610c3e5760405162461bcd60e51b815260206004820152601d60248201527f496e766f696365546f6b656e3a20494420616c726561647920757365640000006044820152606401610576565b600160076000828254610c519190611f21565b90915550506007549050610c74610c6e6040860160208701611bc7565b82611285565b83356000908152600860209081526040808320849055838352600990915290208490610ca08282611f62565b505083356000908152600a60209081526040808320805460ff19166001179055600b9091529020610cd2838583611e1b565b50610ce36040850160208601611bc7565b6001600160a01b03168185357fb03969e6f4472f5e94f4016b7197da9c238100c242a373cffe270d9bb7681601610d206060890160408a01611bc7565b606089013560808a0135610d3a60c08c0160a08d01611bc7565b604080516001600160a01b0395861681526020810194909452830191909152909116606082015260800160405180910390a45b9392505050565b610b7283838360405180602001604052806000815250610f34565b600081815260086020526040812054808203610dae5750600092915050565b610d6d815b60006104ce82611038565b60006001600160a01b038216610dea576040516322718ad960e21b815260006004820152602401610576565b506001600160a01b031660009081526003602052604090205490565b6040805160c081018252600080825260208201819052918101829052606081018290526080810182905260a0810191909152600082815260086020526040812054606090808303610e695760405162461bcd60e51b815260040161057690611d49565b6000818152600960209081526040808320815160c0810183528154815260018201546001600160a01b03908116828601526002830154811682850152600383015460608301526004830154608083015260059092015490911660a0820152888452600a835281842054600b9093529220805492965060ff90911694509061082d90611d9b565b60009182526006602090815260408084206001600160a01b0393909316845291905290205460ff1690565b60606001805461063c90611d9b565b6106f333838361129f565b610f3f8484846108b4565b610939338585858561133e565b6060610f5782611038565b506000610f6f60408051602081019091526000815290565b90506000815111610f8f5760405180602001604052806000815250610d6d565b80610f9984611469565b604051602001610faa929190611fcd565b6040516020818303038152906040529392505050565b600082815260066020526040902060010154610fdb81611177565b6109398383611218565b6001600160a01b03918216600090815260056020908152604080832093909416825291909152205460ff1690565b60006001600160e01b03198216637965db0b60e01b14806104ce57506104ce826114fc565b6000818152600260205260408120546001600160a01b0316806104ce57604051637e27328960e01b815260048101849052602401610576565b610b72838383600161154c565b6000828152600260205260408120546001600160a01b03908116908316156110ab576110ab818486611652565b6001600160a01b038116156110e9576110c860008560008061154c565b6001600160a01b038116600090815260036020526040902080546000190190555b6001600160a01b03851615611118576001600160a01b0385166000908152600360205260409020805460010190555b60008481526002602052604080822080546001600160a01b0319166001600160a01b0389811691821790925591518793918516917fddf252ad1be2c89b69c2b068fc378daa952ba7f163c4a11628f55a4df523b3ef91a4949350505050565b61118181336116b6565b50565b60006111908383610eef565b6112105760008381526006602090815260408083206001600160a01b03861684529091529020805460ff191660011790556111c83390565b6001600160a01b0316826001600160a01b0316847f2f8788117e7eff1d82e926ec794901d17c78024a50270940304540a733656f0d60405160405180910390a45060016104ce565b5060006104ce565b60006112248383610eef565b156112105760008381526006602090815260408083206001600160a01b0386168085529252808320805460ff1916905551339286917ff6391f5c32d9c69d2a47ea670b442974b53935d1edc7fd64eb21e047a839171b9190a45060016104ce565b6106f38282604051806020016040528060008152506116ef565b6001600160a01b0382166112d157604051630b61174360e31b81526001600160a01b0383166004820152602401610576565b6001600160a01b03838116600081815260056020908152604080832094871680845294825291829020805460ff191686151590811790915591519182527f17307eab39ab6107e8899845ad3d59bd9653f200f220920489ca2b5937696c31910160405180910390a3505050565b6001600160a01b0383163b1561146257604051630a85bd0160e11b81526001600160a01b0384169063150b7a0290611380908890889087908790600401611ffc565b6020604051808303816000875af19250505080156113bb575060408051601f3d908101601f191682019092526113b891810190612039565b60015b611424573d8080156113e9576040519150601f19603f3d011682016040523d82523d6000602084013e6113ee565b606091505b50805160000361141c57604051633250574960e11b81526001600160a01b0385166004820152602401610576565b805160208201fd5b6001600160e01b03198116630a85bd0160e11b1461146057604051633250574960e11b81526001600160a01b0385166004820152602401610576565b505b5050505050565b6060600061147683611707565b600101905060008167ffffffffffffffff81111561149657611496611c17565b6040519080825280601f01601f1916602001820160405280156114c0576020820181803683370190505b5090508181016020015b600019016f181899199a1a9b1b9c1cb0b131b232b360811b600a86061a8153600a85049450846114ca57509392505050565b60006001600160e01b031982166380ac58cd60e01b148061152d57506001600160e01b03198216635b5e139f60e01b145b806104ce57506301ffc9a760e01b6001600160e01b03198316146104ce565b808061156057506001600160a01b03821615155b1561162257600061157084611038565b90506001600160a01b0383161580159061159c5750826001600160a01b0316816001600160a01b031614155b80156115af57506115ad8184610fe5565b155b156115d85760405163a9fbf51f60e01b81526001600160a01b0384166004820152602401610576565b81156116205783856001600160a01b0316826001600160a01b03167f8c5be1e5ebec7d5bd14f71427d1e84f3dd0314c0f7b2291e5b200ac8c7c3b92560405160405180910390a45b505b5050600090815260046020526040902080546001600160a01b0319166001600160a01b0392909216919091179055565b61165d8383836117df565b610b72576001600160a01b03831661168b57604051637e27328960e01b815260048101829052602401610576565b60405163177e802f60e01b81526001600160a01b038316600482015260248101829052604401610576565b6116c08282610eef565b6106f35760405163e2517d3f60e01b81526001600160a01b038216600482015260248101839052604401610576565b6116f98383611845565b610b7233600085858561133e565b60008072184f03e93ff9f4daa797ed6e38ed64bf6a1f0160401b83106117465772184f03e93ff9f4daa797ed6e38ed64bf6a1f0160401b830492506040015b6d04ee2d6d415b85acef81000000008310611772576d04ee2d6d415b85acef8100000000830492506020015b662386f26fc10000831061179057662386f26fc10000830492506010015b6305f5e10083106117a8576305f5e100830492506008015b61271083106117bc57612710830492506004015b606483106117ce576064830492506002015b600a83106104ce5760010192915050565b60006001600160a01b0383161580159061183d5750826001600160a01b0316846001600160a01b0316148061181957506118198484610fe5565b8061183d57506000828152600460205260409020546001600160a01b038481169116145b949350505050565b6001600160a01b03821661186f57604051633250574960e11b815260006004820152602401610576565b600061187d8383600061107e565b90506001600160a01b03811615610b72576040516339e3563760e11b815260006004820152602401610576565b6001600160e01b03198116811461118157600080fd5b6000602082840312156118d257600080fd5b8135610d6d816118aa565b600080604083850312156118f057600080fd5b8235915060208301356007811061190657600080fd5b809150509250929050565b60005b8381101561192c578181015183820152602001611914565b50506000910152565b6000815180845261194d816020860160208601611911565b601f01601f19169290920160200192915050565b602081526000610d6d6020830184611935565b60006020828403121561198657600080fd5b5035919050565b6001600160a01b038116811461118157600080fd5b600080604083850312156119b557600080fd5b82356119c08161198d565b946020939093013593505050565b634e487b7160e01b600052602160045260246000fd5b60078110611a0257634e487b7160e01b600052602160045260246000fd5b9052565b6000610120611a588388805182526020808201516001600160a01b0390811691840191909152604080830151821690840152606080830151908401526080808301519084015260a09182015116910152565b611a6560c08401876119e4565b8060e0840152611a7781840186611935565b9150508261010083015295945050505050565b600080600060608486031215611a9f57600080fd5b8335611aaa8161198d565b92506020840135611aba8161198d565b929592945050506040919091013590565b60008060408385031215611ade57600080fd5b8235915060208301356119068161198d565b60008083601f840112611b0257600080fd5b50813567ffffffffffffffff811115611b1a57600080fd5b602083019150836020828501011115611b3257600080fd5b9250929050565b600080600060408486031215611b4e57600080fd5b83359250602084013567ffffffffffffffff811115611b6c57600080fd5b611b7886828701611af0565b9497909650939450505050565b600080600083850360e0811215611b9b57600080fd5b60c0811215611ba957600080fd5b5083925060c084013567ffffffffffffffff811115611b6c57600080fd5b600060208284031215611bd957600080fd5b8135610d6d8161198d565b60008060408385031215611bf757600080fd5b8235611c028161198d565b91506020830135801515811461190657600080fd5b634e487b7160e01b600052604160045260246000fd5b60008060008060808587031215611c4357600080fd5b8435611c4e8161198d565b93506020850135611c5e8161198d565b925060408501359150606085013567ffffffffffffffff80821115611c8257600080fd5b818701915087601f830112611c9657600080fd5b813581811115611ca857611ca8611c17565b604051601f8201601f19908116603f01168101908382118183101715611cd057611cd0611c17565b816040528281528a6020848701011115611ce957600080fd5b82602086016020830137600060208483010152809550505050505092959194509250565b602081016104ce82846119e4565b60008060408385031215611d2e57600080fd5b8235611d398161198d565b915060208301356119068161198d565b60208082526017908201527f496e766f696365546f6b656e3a206e6f7420666f756e64000000000000000000604082015260600190565b60408101611d8e82856119e4565b610d6d60208301846119e4565b600181811c90821680611daf57607f821691505b602082108103611dcf57634e487b7160e01b600052602260045260246000fd5b50919050565b601f821115610b7257600081815260208120601f850160051c81016020861015611dfc5750805b601f850160051c820191505b8181101561146057828155600101611e08565b67ffffffffffffffff831115611e3357611e33611c17565b611e4783611e418354611d9b565b83611dd5565b6000601f841160018114611e7b5760008515611e635750838201355b600019600387901b1c1916600186901b178355611462565b600083815260209020601f19861690835b82811015611eac5786850135825560209485019460019092019101611e8c565b5086821015611ec95760001960f88860031b161c19848701351681555b505060018560011b0183555050505050565b604081526000611eee6040830186611935565b8281036020840152838152838560208301376000602085830101526020601f19601f860116820101915050949350505050565b808201808211156104ce57634e487b7160e01b600052601160045260246000fd5b80546001600160a01b0319166001600160a01b0392909216919091179055565b813581556020820135611f748161198d565b611f818160018401611f42565b506040820135611f908161198d565b611f9d8160028401611f42565b50606082013560038201556080820135600482015560a0820135611fc08161198d565b610b728160058401611f42565b60008351611fdf818460208801611911565b835190830190611ff3818360208801611911565b01949350505050565b6001600160a01b038581168252841660208201526040810183905260806060820181905260009061202f90830184611935565b9695505050505050565b60006020828403121561204b57600080fd5b8151610d6d816118aa56fea264697066735822122080300f13dec45d3f74449d9e75fcf2d3808001b008253781596505c9f89c93ef64736f6c63430008140033",
  "devdoc": {
    "errors": {
      "AccessControlBadConfirmation()": [
        {
          "details": "The caller of a function is not the expected one. NOTE: Don't confuse with {AccessControlUnauthorizedAccount}."
        }
      ],
      "AccessControlUnauthorizedAccount(address,bytes32)": [
        {
          "details": "The `account` is missing a role."
        }
      ],
      "ERC721IncorrectOwner(address,uint256,address)": [
        {
          "details": "Indicates an error related to the ownership over a particular token. Used in transfers.",
          "params": {
            "owner": "Address of the current owner of a token.",
            "sender": "Address whose tokens are being transferred.",
            "tokenId": "Identifier number of a token."
          }
        }
      ],
      "ERC721InsufficientApproval(address,uint256)": [
        {
          "details": "Indicates a failure with the `operator`s approval. Used in transfers.",
          "params": {
            "operator": "Address that may be allowed to operate on tokens without being their owner.",
            "tokenId": "Identifier number of a token."
          }
        }
      ],
      "ERC721InvalidApprover(address)": [
        {
          "details": "Indicates a failure with the `approver` of a token to be approved. Used in approvals.",
          "params": {
            "approver": "Address initiating an approval operation."
          }
        }
      ],
      "ERC721InvalidOperator(address)": [
        {
          "details": "Indicates a failure with the `operator` to be approved. Used in approvals.",
          "params": {
            "operator": "Address that may be allowed to operate on tokens without being their owner."
          }
        }
      ],
      "ERC721InvalidOwner(address)": [
        {
          "details": "Indicates that an address can't be an owner. For example, `address(0)` is a forbidden owner in ERC-20. Used in balance queries.",
          "params": {
            "owner": "Address of the current owner of a token."
          }
        }
      ],
      "ERC721InvalidReceiver(address)": [
        {
          "details": "Indicates a failure with the token `receiver`. Used in transfers.",
          "params": {
            "receiver": "Address to which tokens are being transferred."
          }
        }
      ],
      "ERC721InvalidSender(address)": [
        {
          "details": "Indicates a failure with the token `sender`. Used in transfers.",
          "params": {
            "sender": "Address whose tokens are being transferred."
          }
        }
      ],
      "ERC721NonexistentToken(uint256)": [
        {
          "details": "Indicates a `tokenId` whose `owner` is the zero address.",
          "params": {
            "tokenId": "Identifier number of a token."
          }
        }
      ]
    },
    "events": {
      "Approval(address,address,uint256)": {
        "details": "Emitted when `owner` enables `approved` to manage the `tokenId` token."
      },
      "ApprovalForAll(address,address,bool)": {
        "details": "Emitted when `owner` enables or disables (`approved`) `operator` to manage all of its assets."
      },
      "RoleAdminChanged(bytes32,bytes32,bytes32)": {
        "details": "Emitted when `newAdminRole` is set as ``role``'s admin role, replacing `previousAdminRole` `DEFAULT_ADMIN_ROLE` is the starting admin for all roles, despite {RoleAdminChanged} not being emitted to signal this."
      },
      "RoleGranted(bytes32,address,address)": {
        "details": "Emitted when `account` is granted `role`. `sender` is the account that originated the contract call. This account bears the admin role (for the granted role). Expected in cases where the role was granted using the internal {AccessControl-_grantRole}."
      },
      "RoleRevoked(bytes32,address,address)": {
        "details": "Emitted when `account` is revoked `role`. `sender` is the account that originated the contract call:   - if using `revokeRole`, it is the admin role bearer   - if using `renounceRole`, it is the role bearer (i.e. `account`)"
      },
      "Transfer(address,address,uint256)": {
        "details": "Emitted when `tokenId` token is transferred from `from` to `to`."
      }
    },
    "kind": "dev",
    "methods": {
      "approve(address,uint256)": {
        "details": "Gives permission to `to` to transfer `tokenId` token to another account. The approval is cleared when the token is transferred. Only a single account can be approved at a time, so approving the zero address clears previous approvals. Requirements: - The caller must own the token or be an approved operator. - `tokenId` must exist. Emits an {Approval} event."
      },
      "balanceOf(address)": {
        "details": "Returns the number of tokens in ``owner``'s account."
      },
      "getApproved(uint256)": {
        "details": "Returns the account approved for `tokenId` token. Requirements: - `tokenId` must exist."
      },
      "getRoleAdmin(bytes32)": {
        "details": "Returns the admin role that controls `role`. See {grantRole} and {revokeRole}. To change a role's admin, use {_setRoleAdmin}."
      },
      "grantRole(bytes32,address)": {
        "details": "Grants `role` to `account`. If `account` had not been already granted `role`, emits a {RoleGranted} event. Requirements: - the caller must have ``role``'s admin role. May emit a {RoleGranted} event."
      },
      "hasRole(bytes32,address)": {
        "details": "Returns `true` if `account` has been granted `role`."
      },
      "isApprovedForAll(address,address)": {
        "details": "Returns if the `operator` is allowed to manage all of the assets of `owner`. See {setApprovalForAll}"
      },
      "name()": {
        "details": "Returns the token collection name."
      },
      "ownerOf(uint256)": {
        "details": "Returns the owner of the `tokenId` token. Requirements: - `tokenId` must exist."
      },
      "renounceRole(bytes32,address)": {
        "details": "Revokes `role` from the calling account. Roles are often managed via {grantRole} and {revokeRole}: this function's purpose is to provide a mechanism for accounts to lose their privileges if they are compromised (such as when a trusted device is misplaced). If the calling account had been revoked `role`, emits a {RoleRevoked} event. Requirements: - the caller must be `callerConfirmation`. May emit a {RoleRevoked} event."
      },
      "revokeRole(bytes32,address)": {
        "details": "Revokes `role` from `account`. If `account` had been granted `role`, emits a {RoleRevoked} event. Requirements: - the caller must have ``role``'s admin role. May emit a {RoleRevoked} event."
      },
      "safeTransferFrom(address,address,uint256)": {
        "details": "Safely transfers `tokenId` token from `from` to `to`, checking first that contract recipients are aware of the ERC-721 protocol to prevent tokens from being forever locked. Requirements: - `from` cannot be the zero address. - `to` cannot be the zero address. - `tokenId` token must exist and be owned by `from`. - If the caller is not `from`, it must have been allowed to move this token by either {approve} or   {setApprovalForAll}. - If `to` refers to a smart contract, it must implement {IERC721Receiver-onERC721Received}, which is called upon   a safe transfer. Emits a {Transfer} event."
      },
      "safeTransferFrom(address,address,uint256,bytes)": {
        "details": "Safely transfers `tokenId` token from `from` to `to`. Requirements: - `from` cannot be the zero address. - `to` cannot be the zero address. - `tokenId` token must exist and be owned by `from`. - If the caller is not `from`, it must be approved to move this token by either {approve} or {setApprovalForAll}. - If `to` refers to a smart contract, it must implement {IERC721Receiver-onERC721Received}, which is called upon   a safe transfer. Emits a {Transfer} event."
      },
      "setApprovalForAll(address,bool)": {
        "details": "Approve or remove `operator` as an operator for the caller. Operators can call {transferFrom} or {safeTransferFrom} for any token owned by the caller. Requirements: - The `operator` cannot be the address zero. Emits an {ApprovalForAll} event."
      },
      "symbol()": {
        "details": "Returns the token collection symbol."
      },
      "tokenURI(uint256)": {
        "details": "Returns the Uniform Resource Identifier (URI) for `tokenId` token."
      },
      "transferFrom(address,address,uint256)": {
        "details": "Transfers `tokenId` token from `from` to `to`. WARNING: Note that the caller is responsible to confirm that the recipient is capable of receiving ERC-721 or else they may be permanently lost. Usage of {safeTransferFrom} prevents loss, though the caller must understand this adds an external call which potentially creates a reentrancy vulnerability. Requirements: - `from` cannot be the zero address. - `to` cannot be the zero address. - `tokenId` token must be owned by `from`. - If the caller is not `from`, it must be approved to move this token by either {approve} or {setApprovalForAll}. Emits a {Transfer} event."
      }
    },
    "version": 1
  },
  "userdoc": {
    "kind": "user",
    "methods": {},
    "version": 1
  },
  "storageLayout": {
    "storage": [
      {
        "astId": 627,
        "contract": "contracts/InvoiceToken.sol:InvoiceToken",
        "label": "_name",
        "offset": 0,
        "slot": "0",
        "type": "t_string_storage"
      },
      {
        "astId": 629,
        "contract": "contracts/InvoiceToken.sol:InvoiceToken",
        "label": "_symbol",
        "offset": 0,
        "slot": "1",
        "type": "t_string_storage"
      },
      {
        "astId": 633,
        "contract": "contracts/InvoiceToken.sol:InvoiceToken",
        "label": "_owners",
        "offset": 0,
        "slot": "2",
        "type": "t_mapping(t_uint256,t_address)"
      },
      {
        "astId": 637,
        "contract": "contracts/InvoiceToken.sol:InvoiceToken",
        "label": "_balances",
        "offset": 0,
        "slot": "3",
        "type": "t_mapping(t_address,t_uint256)"
      },
      {
        "astId": 641,
        "contract": "contracts/InvoiceToken.sol:InvoiceToken",
        "label": "_tokenApprovals",
        "offset": 0,
        "slot": "4",
        "type": "t_mapping(t_uint256,t_address)"
      },
      {
        "astId": 647,
        "contract": "contracts/InvoiceToken.sol:InvoiceToken",
        "label": "_operatorApprovals",
        "offset": 0,
        "slot": "5",
        "type": "t_mapping(t_address,t_mapping(t_address,t_bool))"
      },
      {
        "astId": 27,
        "contract": "contracts/InvoiceToken.sol:InvoiceToken",
        "label": "_roles",
        "offset": 0,
        "slot": "6",
        "type": "t_mapping(t_bytes32,t_struct(RoleData)22_storage)"
      },
      {
        "astId": 7916,
        "contract": "contracts/InvoiceToken.sol:InvoiceToken",
        "label": "_tokenIdTracker",
        "offset": 0,
        "slot": "7",
        "type": "t_uint256"
      },
      {
        "astId": 7920,
        "contract": "contracts/InvoiceToken.sol:InvoiceToken",
        "label": "_invoiceToTokenId",
        "offset": 0,
        "slot": "8",
        "type": "t_mapping(t_bytes32,t_uint256)"
      },
      {
        "astId": 7925,
        "contract": "contracts/InvoiceToken.sol:InvoiceToken",
        "label": "_tokenInvoiceData",
        "offset": 0,
        "slot": "9",
        "type": "t_mapping(t_uint256,t_struct(InvoiceCoreData)8752_storage)"
      },
      {
        "astId": 7930,
        "contract": "contracts/InvoiceToken.sol:InvoiceToken",
        "label": "_invoiceStatus",
        "offset": 0,
        "slot": "10",
        "type": "t_mapping(t_bytes32,t_enum(InvoiceStatus)8739)"
      },
      {
        "astId": 7934,
        "contract": "contracts/InvoiceToken.sol:InvoiceToken",
        "label": "_invoiceMetaURI",
        "offset": 0,
        "slot": "11",
        "type": "t_mapping(t_bytes32,t_string_storage)"
      }
    ],
    "types": {
      "t_address": {
        "encoding": "inplace",
        "label": "address",
        "numberOfBytes": "20"
      },
      "t_bool": {
        "encoding": "inplace",
        "label": "bool",
        "numberOfBytes": "1"
      },
      "t_bytes32": {
        "encoding": "inplace",
        "label": "bytes32",
        "numberOfBytes": "32"
      },
      "t_enum(InvoiceStatus)8739": {
        "encoding": "inplace",
        "label": "enum InvoiceStatus",
        "numberOfBytes": "1"
      },
      "t_mapping(t_address,t_bool)": {
        "encoding": "mapping",
        "key": "t_address",
        "label": "mapping(address => bool)",
        "numberOfBytes": "32",
        "value": "t_bool"
      },
      "t_mapping(t_address,t_mapping(t_address,t_bool))": {
        "encoding": "mapping",
        "key": "t_address",
        "label": "mapping(address => mapping(address => bool))",
        "numberOfBytes": "32",
        "value": "t_mapping(t_address,t_bool)"
      },
      "t_mapping(t_address,t_uint256)": {
        "encoding": "mapping",
        "key": "t_address",
        "label": "mapping(address => uint256)",
        "numberOfBytes": "32",
        "value": "t_uint256"
      },
      "t_mapping(t_bytes32,t_enum(InvoiceStatus)8739)": {
        "encoding": "mapping",
        "key": "t_bytes32",
        "label": "mapping(bytes32 => enum InvoiceStatus)",
        "numberOfBytes": "32",
        "value": "t_enum(InvoiceStatus)8739"
      },
      "t_mapping(t_bytes32,t_string_storage)": {
        "encoding": "mapping",
        "key": "t_bytes32",
        "label": "mapping(bytes32 => string)",
        "numberOfBytes": "32",
        "value": "t_string_storage"
      },
      "t_mapping(t_bytes32,t_struct(RoleData)22_storage)": {
        "encoding": "mapping",
        "key": "t_bytes32",
        "label": "mapping(bytes32 => struct AccessControl.RoleData)",
        "numberOfBytes": "32",
        "value": "t_struct(RoleData)22_storage"
      },
      "t_mapping(t_bytes32,t_uint256)": {
        "encoding": "mapping",
        "key": "t_bytes32",
        "label": "mapping(bytes32 => uint256)",
        "numberOfBytes": "32",
        "value": "t_uint256"
      },
      "t_mapping(t_uint256,t_address)": {
        "encoding": "mapping",
        "key": "t_uint256",
        "label": "mapping(uint256 => address)",
        "numberOfBytes": "32",
        "value": "t_address"
      },
      "t_mapping(t_uint256,t_struct(InvoiceCoreData)8752_storage)": {
        "encoding": "mapping",
        "key": "t_uint256",
        "label": "mapping(uint256 => struct InvoiceCoreData)",
        "numberOfBytes": "32",
        "value": "t_struct(InvoiceCoreData)8752_storage"
      },
      "t_string_storage": {
        "encoding": "bytes",
        "label": "string",
        "numberOfBytes": "32"
      },
      "t_struct(InvoiceCoreData)8752_storage": {
        "encoding": "inplace",
        "label": "struct InvoiceCoreData",
        "members": [
          {
            "astId": 8741,
            "contract": "contracts/InvoiceToken.sol:InvoiceToken",
            "label": "invoiceId",
            "offset": 0,
            "slot": "0",
            "type": "t_bytes32"
          },
          {
            "astId": 8743,
            "contract": "contracts/InvoiceToken.sol:InvoiceToken",
            "label": "issuer",
            "offset": 0,
            "slot": "1",
            "type": "t_address"
          },
          {
            "astId": 8745,
            "contract": "contracts/InvoiceToken.sol:InvoiceToken",
            "label": "debtor",
            "offset": 0,
            "slot": "2",
            "type": "t_address"
          },
          {
            "astId": 8747,
            "contract": "contracts/InvoiceToken.sol:InvoiceToken",
            "label": "amount",
            "offset": 0,
            "slot": "3",
            "type": "t_uint256"
          },
          {
            "astId": 8749,
            "contract": "contracts/InvoiceToken.sol:InvoiceToken",
            "label": "dueDate",
            "offset": 0,
            "slot": "4",
            "type": "t_uint256"
          },
          {
            "astId": 8751,
            "contract": "contracts/InvoiceToken.sol:InvoiceToken",
            "label": "currency",
            "offset": 0,
            "slot": "5",
            "type": "t_address"
          }
        ],
        "numberOfBytes": "192"
      },
      "t_struct(RoleData)22_storage": {
        "encoding": "inplace",
        "label": "struct AccessControl.RoleData",
        "members": [
          {
            "astId": 19,
            "contract": "contracts/InvoiceToken.sol:InvoiceToken",
            "label": "hasRole",
            "offset": 0,
            "slot": "0",
            "type": "t_mapping(t_address,t_bool)"
          },
          {
            "astId": 21,
            "contract": "contracts/InvoiceToken.sol:InvoiceToken",
            "label": "adminRole",
            "offset": 0,
            "slot": "1",
            "type": "t_bytes32"
          }
        ],
        "numberOfBytes": "64"
      },
      "t_uint256": {
        "encoding": "inplace",
        "label": "uint256",
        "numberOfBytes": "32"
      }
    }
  }
}