{
  "address": "0x1ba69423198c7f1924DccD785077BFF5E35efE7f",
  "abi": [
    {
      "inputs": [
        {
          "internalType": "address",
          "name": "invoiceToken_",
          "type": "address"
        },
        {
          "internalType": "address",
          "name": "registry_",
          "type": "address"
        },
        {
          "internalType": "address",
          "name": "liquidityToken_",
          "type": "address"
        },
        {
          "internalType": "address",
          "name": "lpToken_",
          "type": "address"
        },
        {
          "internalType": "uint256",
          "name": "defaultLtvBps_",
          "type": "uint256"
        },
        {
          "internalType": "uint256",
          "name": "maxUtilizationBps_",
          "type": "uint256"
        },
        {
          "internalType": "uint256",
          "name": "borrowAprWad_",
          "type": "uint256"
        },
        {
          "internalType": "uint256",
          "name": "protocolFeeBps_",
          "type": "uint256"
        }
      ],
      "stateMutability": "nonpayable",
      "type": "constructor"
    },
    {
      "inputs": [],
      "name": "AccessControlBadConfirmation",
      "type": "error"
    },
    {
      "inputs": [
        {
          "internalType": "address",
          "name": "account",
          "type": "address"
        },
        {
          "internalType": "bytes32",
          "name": "neededRole",
          "type": "bytes32"
        }
      ],
      "name": "AccessControlUnauthorizedAccount",
      "type": "error"
    },
    {
      "inputs": [],
      "name": "EnforcedPause",
      "type": "error"
    },
    {
      "inputs": [],
      "name": "ExpectedPause",
      "type": "error"
    },
    {
      "inputs": [],
      "name": "ReentrancyGuardReentrantCall",
      "type": "error"
    },
    {
      "anonymous": false,
      "inputs": [
        {
          "indexed": true,
          "internalType": "bytes32",
          "name": "invoiceId",
          "type": "bytes32"
        },
        {
          "indexed": true,
          "internalType": "uint256",
          "name": "tokenId",
          "type": "uint256"
        },
        {
          "indexed": false,
          "internalType": "uint256",
          "name": "recoveredAmount",
          "type": "uint256"
        }
      ],
      "name": "CollateralLiquidated",
      "type": "event"
    },
    {
      "anonymous": false,
      "inputs": [
        {
          "indexed": true,
          "internalType": "bytes32",
          "name": "invoiceId",
          "type": "bytes32"
        },
        {
          "indexed": true,
          "internalType": "uint256",
          "name": "tokenId",
          "type": "uint256"
        },
        {
          "indexed": true,
          "internalType": "address",
          "name": "company",
          "type": "address"
        },
        {
          "indexed": false,
          "internalType": "uint256",
          "name": "creditLine",
          "type": "uint256"
        },
        {
          "indexed": false,
          "internalType": "uint256",
          "name": "ltvBps",
          "type": "uint256"
        }
      ],
      "name": "CollateralLocked",
      "type": "event"
    },
    {
      "anonymous": false,
      "inputs": [
        {
          "indexed": true,
          "internalType": "bytes32",
          "name": "invoiceId",
          "type": "bytes32"
        },
        {
          "indexed": true,
          "internalType": "uint256",
          "name": "tokenId",
          "type": "uint256"
        },
        {
          "indexed": false,
          "internalType": "address",
          "name": "company",
          "type": "address"
        }
      ],
      "name": "CollateralReleased",
      "type": "event"
    },
    {
      "anonymous": false,
      "inputs": [
        {
          "indexed": true,
          "internalType": "bytes32",
          "name": "invoiceId",
          "type": "bytes32"
        },
        {
          "indexed": false,
          "internalType": "uint256",
          "name": "amount",
          "type": "uint256"
        },
        {
          "indexed": false,
          "internalType": "address",
          "name": "to",
          "type": "address"
        }
      ],
      "name": "CreditDrawn",
      "type": "event"
    },
    {
      "anonymous": false,
      "inputs": [
        {
          "indexed": true,
          "internalType": "bytes32",
          "name": "invoiceId",
          "type": "bytes32"
        },
        {
          "indexed": false,
          "internalType": "uint256",
          "name": "amount",
          "type": "uint256"
        },
        {
          "indexed": false,
          "internalType": "uint256",
          "name": "remainingDebt",
          "type": "uint256"
        }
      ],
      "name": "CreditRepaid",
      "type": "event"
    },
    {
      "anonymous": false,
      "inputs": [
        {
          "indexed": true,
          "internalType": "bytes32",
          "name": "invoiceId",
          "type": "bytes32"
        },
        {
          "indexed": false,
          "internalType": "enum RecourseMode",
          "name": "mode",
          "type": "uint8"
        },
        {
          "indexed": false,
          "internalType": "uint256",
          "name": "principal",
          "type": "uint256"
        },
        {
          "indexed": false,
          "internalType": "uint256",
          "name": "interest",
          "type": "uint256"
        },
        {
          "indexed": false,
          "internalType": "uint256",
          "name": "timestamp",
          "type": "uint256"
        }
      ],
      "name": "DefaultDeclared",
      "type": "event"
    },
    {
      "anonymous": false,
      "inputs": [
        {
          "indexed": true,
          "internalType": "bytes32",
          "name": "invoiceId",
          "type": "bytes32"
        },
        {
          "indexed": false,
          "internalType": "uint256",
          "name": "dueDate",
          "type": "uint256"
        },
        {
          "indexed": false,
          "internalType": "uint256",
          "name": "graceEndsAt",
          "type": "uint256"
        }
      ],
      "name": "GraceStarted",
      "type": "event"
    },
    {
      "anonymous": false,
      "inputs": [
        {
          "indexed": true,
          "internalType": "bytes32",
          "name": "invoiceId",
          "type": "bytes32"
        },
        {
          "indexed": false,
          "internalType": "uint256",
          "name": "interestDelta",
          "type": "uint256"
        },
        {
          "indexed": false,
          "internalType": "uint256",
          "name": "totalInterestAccrued",
          "type": "uint256"
        }
      ],
      "name": "InterestAccrued",
      "type": "event"
    },
    {
      "anonymous": false,
      "inputs": [
        {
          "indexed": true,
          "internalType": "bytes32",
          "name": "invoiceId",
          "type": "bytes32"
        },
        {
          "indexed": false,
          "internalType": "uint256",
          "name": "interestPaid",
          "type": "uint256"
        },
        {
          "indexed": false,
          "internalType": "uint256",
          "name": "protocolFee",
          "type": "uint256"
        },
        {
          "indexed": false,
          "internalType": "uint256",
          "name": "lpInterest",
          "type": "uint256"
        }
      ],
      "name": "InterestPaid",
      "type": "event"
    },
    {
      "anonymous": false,
      "inputs": [
        {
          "indexed": true,
          "internalType": "address",
          "name": "issuer",
          "type": "address"
        },
        {
          "indexed": false,
          "internalType": "uint256",
          "name": "attemptedTotal",
          "type": "uint256"
        },
        {
          "indexed": false,
          "internalType": "uint256",
          "name": "maxAllowed",
          "type": "uint256"
        }
      ],
      "name": "IssuerExposureLimitHit",
      "type": "event"
    },
    {
      "anonymous": false,
      "inputs": [
        {
          "indexed": true,
          "internalType": "address",
          "name": "issuer",
          "type": "address"
        },
        {
          "indexed": false,
          "internalType": "uint256",
          "name": "newExposure",
          "type": "uint256"
        }
      ],
      "name": "IssuerExposureUpdated",
      "type": "event"
    },
    {
      "anonymous": false,
      "inputs": [
        {
          "indexed": true,
          "internalType": "address",
          "name": "lp",
          "type": "address"
        },
        {
          "indexed": false,
          "internalType": "uint256",
          "name": "amount",
          "type": "uint256"
        },
        {
          "indexed": false,
          "internalType": "uint256",
          "name": "lpSharesMinted",
          "type": "uint256"
        }
      ],
      "name": "LiquidityDeposited",
      "type": "event"
    },
    {
      "anonymous": false,
      "inputs": [
        {
          "indexed": true,
          "internalType": "address",
          "name": "lp",
          "type": "address"
        },
        {
          "indexed": false,
          "internalType": "uint256",
          "name": "lpSharesBurned",
          "type": "uint256"
        },
        {
          "indexed": false,
          "internalType": "uint256",
          "name": "amount",
          "type": "uint256"
        }
      ],
      "name": "LiquidityWithdrawn",
      "type": "event"
    },
    {
      "anonymous": false,
      "inputs": [
        {
          "indexed": true,
          "internalType": "bytes32",
          "name": "invoiceId",
          "type": "bytes32"
        },
        {
          "indexed": false,
          "internalType": "uint256",
          "name": "lossAmount",
          "type": "uint256"
        },
        {
          "indexed": false,
          "internalType": "uint256",
          "name": "reserveUsed",
          "type": "uint256"
        },
        {
          "indexed": false,
          "internalType": "uint256",
          "name": "lpLoss",
          "type": "uint256"
        }
      ],
      "name": "LossWrittenDown",
      "type": "event"
    },
    {
      "anonymous": false,
      "inputs": [
        {
          "indexed": false,
          "internalType": "address",
          "name": "account",
          "type": "address"
        }
      ],
      "name": "Paused",
      "type": "event"
    },
    {
      "anonymous": false,
      "inputs": [
        {
          "indexed": true,
          "internalType": "address",
          "name": "triggeredBy",
          "type": "address"
        }
      ],
      "name": "PoolPaused",
      "type": "event"
    },
    {
      "anonymous": false,
      "inputs": [
        {
          "indexed": true,
          "internalType": "address",
          "name": "triggeredBy",
          "type": "address"
        }
      ],
      "name": "PoolUnpaused",
      "type": "event"
    },
    {
      "anonymous": false,
      "inputs": [
        {
          "indexed": true,
          "internalType": "bytes32",
          "name": "invoiceId",
          "type": "bytes32"
        },
        {
          "indexed": false,
          "internalType": "enum RecourseMode",
          "name": "mode",
          "type": "uint8"
        }
      ],
      "name": "PositionRecourseModeSet",
      "type": "event"
    },
    {
      "anonymous": false,
      "inputs": [
        {
          "indexed": true,
          "internalType": "address",
          "name": "to",
          "type": "address"
        },
        {
          "indexed": false,
          "internalType": "uint256",
          "name": "amount",
          "type": "uint256"
        }
      ],
      "name": "ProtocolFeesWithdrawn",
      "type": "event"
    },
    {
      "anonymous": false,
      "inputs": [
        {
          "indexed": true,
          "internalType": "bytes32",
          "name": "invoiceId",
          "type": "bytes32"
        },
        {
          "indexed": true,
          "internalType": "address",
          "name": "issuer",
          "type": "address"
        },
        {
          "indexed": false,
          "internalType": "uint256",
          "name": "amount",
          "type": "uint256"
        },
        {
          "indexed": false,
          "internalType": "bytes32",
          "name": "txHash",
          "type": "bytes32"
        }
      ],
      "name": "RecoursePaid",
      "type": "event"
    },
    {
      "anonymous": false,
      "inputs": [
        {
          "indexed": false,
          "internalType": "uint256",
          "name": "amount",
          "type": "uint256"
        },
        {
          "indexed": false,
          "internalType": "uint256",
          "name": "newBalance",
          "type": "uint256"
        }
      ],
      "name": "ReserveFunded",
      "type": "event"
    },
    {
      "anonymous": false,
      "inputs": [
        {
          "indexed": false,
          "internalType": "uint256",
          "name": "bps",
          "type": "uint256"
        }
      ],
      "name": "ReserveTargetUpdated",
      "type": "event"
    },
    {
      "anonymous": false,
      "inputs": [
        {
          "indexed": true,
          "internalType": "bytes32",
          "name": "role",
          "type": "bytes32"
        },
        {
          "indexed": true,
          "internalType": "bytes32",
          "name": "previousAdminRole",
          "type": "bytes32"
        },
        {
          "indexed": true,
          "internalType": "bytes32",
          "name": "newAdminRole",
          "type": "bytes32"
        }
      ],
      "name": "RoleAdminChanged",
      "type": "event"
    },
    {
      "anonymous": false,
      "inputs": [
        {
          "indexed": true,
          "internalType": "bytes32",
          "name": "role",
          "type": "bytes32"
        },
        {
          "indexed": true,
          "internalType": "address",
          "name": "account",
          "type": "address"
        },
        {
          "indexed": true,
          "internalType": "address",
          "name": "sender",
          "type": "address"
        }
      ],
      "name": "RoleGranted",
      "type": "event"
    },
    {
      "anonymous": false,
      "inputs": [
        {
          "indexed": true,
          "internalType": "bytes32",
          "name": "role",
          "type": "bytes32"
        },
        {
          "indexed": true,
          "internalType": "address",
          "name": "account",
          "type": "address"
        },
        {
          "indexed": true,
          "internalType": "address",
          "name": "sender",
          "type": "address"
        }
      ],
      "name": "RoleRevoked",
      "type": "event"
    },
    {
      "anonymous": false,
      "inputs": [
        {
          "indexed": false,
          "internalType": "uint256",
          "name": "nav",
          "type": "uint256"
        },
        {
          "indexed": false,
          "internalType": "uint256",
          "name": "sharePriceWad",
          "type": "uint256"
        }
      ],
      "name": "SharePriceUpdated",
      "type": "event"
    },
    {
      "anonymous": false,
      "inputs": [
        {
          "indexed": true,
          "internalType": "bytes32",
          "name": "invoiceId",
          "type": "bytes32"
        },
        {
          "indexed": false,
          "internalType": "uint256",
          "name": "attemptedAmount",
          "type": "uint256"
        },
        {
          "indexed": false,
          "internalType": "uint256",
          "name": "maxAllowed",
          "type": "uint256"
        }
      ],
      "name": "SingleLoanLimitHit",
      "type": "event"
    },
    {
      "anonymous": false,
      "inputs": [
        {
          "indexed": false,
          "internalType": "address",
          "name": "account",
          "type": "address"
        }
      ],
      "name": "Unpaused",
      "type": "event"
    },
    {
      "anonymous": false,
      "inputs": [
        {
          "indexed": false,
          "internalType": "uint256",
          "name": "utilizationBps",
          "type": "uint256"
        },
        {
          "indexed": false,
          "internalType": "uint256",
          "name": "attemptedAmount",
          "type": "uint256"
        }
      ],
      "name": "UtilizationLimitHit",
      "type": "event"
    },
    {
      "inputs": [],
      "name": "ADMIN_ROLE",
      "outputs": [
        {
          "internalType": "bytes32",
          "name": "",
          "type": "bytes32"
        }
      ],
      "stateMutability": "view",
      "type": "function"
    },
    {
      "inputs": [],
      "name": "DEFAULT_ADMIN_ROLE",
      "outputs": [
        {
          "internalType": "bytes32",
          "name": "",
          "type": "bytes32"
        }
      ],
      "stateMutability": "view",
      "type": "function"
    },
    {
      "inputs": [],
      "name": "OPERATOR_ROLE",
      "outputs": [
        {
          "internalType": "bytes32",
          "name": "",
          "type": "bytes32"
        }
      ],
      "stateMutability": "view",
      "type": "function"
    },
    {
      "inputs": [
        {
          "internalType": "bytes32",
          "name": "invoiceId",
          "type": "bytes32"
        }
      ],
      "name": "accrueInterest",
      "outputs": [],
      "stateMutability": "nonpayable",
      "type": "function"
    },
    {
      "inputs": [],
      "name": "availableLiquidity",
      "outputs": [
        {
          "internalType": "uint256",
          "name": "",
          "type": "uint256"
        }
      ],
      "stateMutability": "view",
      "type": "function"
    },
    {
      "inputs": [],
      "name": "borrowAprWad",
      "outputs": [
        {
          "internalType": "uint256",
          "name": "",
          "type": "uint256"
        }
      ],
      "stateMutability": "view",
      "type": "function"
    },
    {
      "inputs": [
        {
          "internalType": "uint256",
          "name": "depositAmount",
          "type": "uint256"
        }
      ],
      "name": "calculateLPSharesForDeposit",
      "outputs": [
        {
          "internalType": "uint256",
          "name": "",
          "type": "uint256"
        }
      ],
      "stateMutability": "view",
      "type": "function"
    },
    {
      "inputs": [
        {
          "internalType": "uint256",
          "name": "lpShares",
          "type": "uint256"
        }
      ],
      "name": "calculateWithdrawalAmount",
      "outputs": [
        {
          "internalType": "uint256",
          "name": "",
          "type": "uint256"
        }
      ],
      "stateMutability": "view",
      "type": "function"
    },
    {
      "inputs": [
        {
          "internalType": "bytes32",
          "name": "invoiceId",
          "type": "bytes32"
        }
      ],
      "name": "declareDefault",
      "outputs": [],
      "stateMutability": "nonpayable",
      "type": "function"
    },
    {
      "inputs": [],
      "name": "defaultLtvBps",
      "outputs": [
        {
          "internalType": "uint256",
          "name": "",
          "type": "uint256"
        }
      ],
      "stateMutability": "view",
      "type": "function"
    },
    {
      "inputs": [
        {
          "internalType": "uint256",
          "name": "amount",
          "type": "uint256"
        }
      ],
      "name": "deposit",
      "outputs": [],
      "stateMutability": "nonpayable",
      "type": "function"
    },
    {
      "inputs": [
        {
          "internalType": "bytes32",
          "name": "invoiceId",
          "type": "bytes32"
        },
        {
          "internalType": "uint256",
          "name": "amount",
          "type": "uint256"
        },
        {
          "internalType": "address",
          "name": "to",
          "type": "address"
        }
      ],
      "name": "drawCredit",
      "outputs": [],
      "stateMutability": "nonpayable",
      "type": "function"
    },
    {
      "inputs": [
        {
          "internalType": "uint256",
          "name": "amount",
          "type": "uint256"
        }
      ],
      "name": "fundReserve",
      "outputs": [],
      "stateMutability": "nonpayable",
      "type": "function"
    },
    {
      "inputs": [
        {
          "internalType": "address",
          "name": "lp",
          "type": "address"
        }
      ],
      "name": "getLPPosition",
      "outputs": [
        {
          "internalType": "uint256",
          "name": "lpShares",
          "type": "uint256"
        },
        {
          "internalType": "uint256",
          "name": "underlyingValue",
          "type": "uint256"
        },
        {
          "internalType": "uint256",
          "name": "sharePrice",
          "type": "uint256"
        }
      ],
      "stateMutability": "view",
      "type": "function"
    },
    {
      "inputs": [],
      "name": "getLPSharePrice",
      "outputs": [
        {
          "internalType": "uint256",
          "name": "",
          "type": "uint256"
        }
      ],
      "stateMutability": "view",
      "type": "function"
    },
    {
      "inputs": [],
      "name": "getNAV",
      "outputs": [
        {
          "internalType": "uint256",
          "name": "",
          "type": "uint256"
        }
      ],
      "stateMutability": "view",
      "type": "function"
    },
    {
      "inputs": [
        {
          "internalType": "bytes32",
          "name": "invoiceId",
          "type": "bytes32"
        }
      ],
      "name": "getPosition",
      "outputs": [
        {
          "components": [
            {
              "internalType": "bytes32",
              "name": "invoiceId",
              "type": "bytes32"
            },
            {
              "internalType": "uint256",
              "name": "tokenId",
              "type": "uint256"
            },
            {
              "internalType": "address",
              "name": "company",
              "type": "address"
            },
            {
              "internalType": "uint256",
              "name": "maxCreditLine",
              "type": "uint256"
            },
            {
              "internalType": "uint256",
              "name": "usedCredit",
              "type": "uint256"
            },
            {
              "internalType": "uint256",
              "name": "interestAccrued",
              "type": "uint256"
            },
            {
              "internalType": "uint256",
              "name": "lastAccrualTs",
              "type": "uint256"
            },
            {
              "internalType": "uint256",
              "name": "ltvBps",
              "type": "uint256"
            },
            {
              "internalType": "enum RecourseMode",
              "name": "recourseMode",
              "type": "uint8"
            },
            {
              "internalType": "uint256",
              "name": "dueDate",
              "type": "uint256"
            },
            {
              "internalType": "uint256",
              "name": "graceEndsAt",
              "type": "uint256"
            },
            {
              "internalType": "uint256",
              "name": "defaultDeclaredAt",
              "type": "uint256"
            },
            {
              "internalType": "bool",
              "name": "isInDefault",
              "type": "bool"
            },
            {
              "internalType": "enum DefaultResolution",
              "name": "resolution",
              "type": "uint8"
            },
            {
              "internalType": "bool",
              "name": "liquidated",
              "type": "bool"
            },
            {
              "internalType": "bool",
              "name": "exists",
              "type": "bool"
            }
          ],
          "internalType": "struct FinancingPool.CollateralPosition",
          "name": "",
          "type": "tuple"
        }
      ],
      "stateMutability": "view",
      "type": "function"
    },
    {
      "inputs": [
        {
          "internalType": "bytes32",
          "name": "role",
          "type": "bytes32"
        }
      ],
      "name": "getRoleAdmin",
      "outputs": [
        {
          "internalType": "bytes32",
          "name": "",
          "type": "bytes32"
        }
      ],
      "stateMutability": "view",
      "type": "function"
    },
    {
      "inputs": [],
      "name": "gracePeriodSeconds",
      "outputs": [
        {
          "internalType": "uint256",
          "name": "",
          "type": "uint256"
        }
      ],
      "stateMutability": "view",
      "type": "function"
    },
    {
      "inputs": [
        {
          "internalType": "bytes32",
          "name": "role",
          "type": "bytes32"
        },
        {
          "internalType": "address",
          "name": "account",
          "type": "address"
        }
      ],
      "name": "grantRole",
      "outputs": [],
      "stateMutability": "nonpayable",
      "type": "function"
    },
    {
      "inputs": [
        {
          "internalType": "bytes32",
          "name": "role",
          "type": "bytes32"
        },
        {
          "internalType": "address",
          "name": "account",
          "type": "address"
        }
      ],
      "name": "hasRole",
      "outputs": [
        {
          "internalType": "bool",
          "name": "",
          "type": "bool"
        }
      ],
      "stateMutability": "view",
      "type": "function"
    },
    {
      "inputs": [],
      "name": "invoiceToken",
      "outputs": [
        {
          "internalType": "contract InvoiceToken",
          "name": "",
          "type": "address"
        }
      ],
      "stateMutability": "view",
      "type": "function"
    },
    {
      "inputs": [
        {
          "internalType": "bytes32",
          "name": "invoiceId",
          "type": "bytes32"
        }
      ],
      "name": "isCollateralized",
      "outputs": [
        {
          "internalType": "bool",
          "name": "",
          "type": "bool"
        }
      ],
      "stateMutability": "view",
      "type": "function"
    },
    {
      "inputs": [
        {
          "internalType": "bytes32",
          "name": "invoiceId",
          "type": "bytes32"
        }
      ],
      "name": "liquidateCollateral",
      "outputs": [],
      "stateMutability": "nonpayable",
      "type": "function"
    },
    {
      "inputs": [],
      "name": "liquidityToken",
      "outputs": [
        {
          "internalType": "contract IERC20",
          "name": "",
          "type": "address"
        }
      ],
      "stateMutability": "view",
      "type": "function"
    },
    {
      "inputs": [
        {
          "internalType": "bytes32",
          "name": "invoiceId",
          "type": "bytes32"
        },
        {
          "internalType": "uint256",
          "name": "tokenId",
          "type": "uint256"
        },
        {
          "internalType": "address",
          "name": "company",
          "type": "address"
        }
      ],
      "name": "lockCollateral",
      "outputs": [],
      "stateMutability": "nonpayable",
      "type": "function"
    },
    {
      "inputs": [],
      "name": "lpLosses",
      "outputs": [
        {
          "internalType": "uint256",
          "name": "",
          "type": "uint256"
        }
      ],
      "stateMutability": "view",
      "type": "function"
    },
    {
      "inputs": [],
      "name": "lpToken",
      "outputs": [
        {
          "internalType": "contract LPShareToken",
          "name": "",
          "type": "address"
        }
      ],
      "stateMutability": "view",
      "type": "function"
    },
    {
      "inputs": [
        {
          "internalType": "bytes32",
          "name": "invoiceId",
          "type": "bytes32"
        }
      ],
      "name": "markOverdueAndStartGrace",
      "outputs": [],
      "stateMutability": "nonpayable",
      "type": "function"
    },
    {
      "inputs": [],
      "name": "maxIssuerExposureBps",
      "outputs": [
        {
          "internalType": "uint256",
          "name": "",
          "type": "uint256"
        }
      ],
      "stateMutability": "view",
      "type": "function"
    },
    {
      "inputs": [],
      "name": "maxLoanBpsOfTVL",
      "outputs": [
        {
          "internalType": "uint256",
          "name": "",
          "type": "uint256"
        }
      ],
      "stateMutability": "view",
      "type": "function"
    },
    {
      "inputs": [],
      "name": "maxLtvNonRecourseBps",
      "outputs": [
        {
          "internalType": "uint256",
          "name": "",
          "type": "uint256"
        }
      ],
      "stateMutability": "view",
      "type": "function"
    },
    {
      "inputs": [],
      "name": "maxLtvRecourseBps",
      "outputs": [
        {
          "internalType": "uint256",
          "name": "",
          "type": "uint256"
        }
      ],
      "stateMutability": "view",
      "type": "function"
    },
    {
      "inputs": [],
      "name": "maxUtilizationBps",
      "outputs": [
        {
          "internalType": "uint256",
          "name": "",
          "type": "uint256"
        }
      ],
      "stateMutability": "view",
      "type": "function"
    },
    {
      "inputs": [],
      "name": "nav",
      "outputs": [
        {
          "internalType": "uint256",
          "name": "",
          "type": "uint256"
        }
      ],
      "stateMutability": "view",
      "type": "function"
    },
    {
      "inputs": [
        {
          "internalType": "address",
          "name": "",
          "type": "address"
        },
        {
          "internalType": "address",
          "name": "",
          "type": "address"
        },
        {
          "internalType": "uint256",
          "name": "",
          "type": "uint256"
        },
        {
          "internalType": "bytes",
          "name": "",
          "type": "bytes"
        }
      ],
      "name": "onERC721Received",
      "outputs": [
        {
          "internalType": "bytes4",
          "name": "",
          "type": "bytes4"
        }
      ],
      "stateMutability": "pure",
      "type": "function"
    },
    {
      "inputs": [],
      "name": "pause",
      "outputs": [],
      "stateMutability": "nonpayable",
      "type": "function"
    },
    {
      "inputs": [],
      "name": "paused",
      "outputs": [
        {
          "internalType": "bool",
          "name": "",
          "type": "bool"
        }
      ],
      "stateMutability": "view",
      "type": "function"
    },
    {
      "inputs": [
        {
          "internalType": "bytes32",
          "name": "invoiceId",
          "type": "bytes32"
        },
        {
          "internalType": "uint256",
          "name": "amount",
          "type": "uint256"
        }
      ],
      "name": "payRecourse",
      "outputs": [],
      "stateMutability": "nonpayable",
      "type": "function"
    },
    {
      "inputs": [],
      "name": "poolStartTime",
      "outputs": [
        {
          "internalType": "uint256",
          "name": "",
          "type": "uint256"
        }
      ],
      "stateMutability": "view",
      "type": "function"
    },
    {
      "inputs": [],
      "name": "protocolFeeBps",
      "outputs": [
        {
          "internalType": "uint256",
          "name": "",
          "type": "uint256"
        }
      ],
      "stateMutability": "view",
      "type": "function"
    },
    {
      "inputs": [],
      "name": "protocolFeesAccrued",
      "outputs": [
        {
          "internalType": "uint256",
          "name": "",
          "type": "uint256"
        }
      ],
      "stateMutability": "view",
      "type": "function"
    },
    {
      "inputs": [
        {
          "internalType": "bytes32",
          "name": "invoiceId",
          "type": "bytes32"
        },
        {
          "internalType": "uint256",
          "name": "tokenId",
          "type": "uint256"
        },
        {
          "internalType": "address",
          "name": "company",
          "type": "address"
        }
      ],
      "name": "recoverLockCollateral",
      "outputs": [],
      "stateMutability": "nonpayable",
      "type": "function"
    },
    {
      "inputs": [],
      "name": "recoveryWindowSeconds",
      "outputs": [
        {
          "internalType": "uint256",
          "name": "",
          "type": "uint256"
        }
      ],
      "stateMutability": "view",
      "type": "function"
    },
    {
      "inputs": [],
      "name": "registry",
      "outputs": [
        {
          "internalType": "contract InvoiceRegistry",
          "name": "",
          "type": "address"
        }
      ],
      "stateMutability": "view",
      "type": "function"
    },
    {
      "inputs": [
        {
          "internalType": "bytes32",
          "name": "invoiceId",
          "type": "bytes32"
        }
      ],
      "name": "releaseCollateral",
      "outputs": [],
      "stateMutability": "nonpayable",
      "type": "function"
    },
    {
      "inputs": [
        {
          "internalType": "bytes32",
          "name": "role",
          "type": "bytes32"
        },
        {
          "internalType": "address",
          "name": "callerConfirmation",
          "type": "address"
        }
      ],
      "name": "renounceRole",
      "outputs": [],
      "stateMutability": "nonpayable",
      "type": "function"
    },
    {
      "inputs": [
        {
          "internalType": "bytes32",
          "name": "invoiceId",
          "type": "bytes32"
        },
        {
          "internalType": "uint256",
          "name": "amount",
          "type": "uint256"
        }
      ],
      "name": "repayCredit",
      "outputs": [],
      "stateMutability": "nonpayable",
      "type": "function"
    },
    {
      "inputs": [],
      "name": "reserveBalance",
      "outputs": [
        {
          "internalType": "uint256",
          "name": "",
          "type": "uint256"
        }
      ],
      "stateMutability": "view",
      "type": "function"
    },
    {
      "inputs": [],
      "name": "reserveTargetBps",
      "outputs": [
        {
          "internalType": "uint256",
          "name": "",
          "type": "uint256"
        }
      ],
      "stateMutability": "view",
      "type": "function"
    },
    {
      "inputs": [
        {
          "internalType": "bytes32",
          "name": "invoiceId",
          "type": "bytes32"
        },
        {
          "internalType": "enum DefaultResolution",
          "name": "resolutionType",
          "type": "uint8"
        }
      ],
      "name": "resolveDefault",
      "outputs": [],
      "stateMutability": "nonpayable",
      "type": "function"
    },
    {
      "inputs": [
        {
          "internalType": "bytes32",
          "name": "role",
          "type": "bytes32"
        },
        {
          "internalType": "address",
          "name": "account",
          "type": "address"
        }
      ],
      "name": "revokeRole",
      "outputs": [],
      "stateMutability": "nonpayable",
      "type": "function"
    },
    {
      "inputs": [],
      "name": "routeProtocolFeesToReserve",
      "outputs": [],
      "stateMutability": "nonpayable",
      "type": "function"
    },
    {
      "inputs": [
        {
          "internalType": "uint256",
          "name": "bps",
          "type": "uint256"
        }
      ],
      "name": "setMaxIssuerExposureBps",
      "outputs": [],
      "stateMutability": "nonpayable",
      "type": "function"
    },
    {
      "inputs": [
        {
          "internalType": "uint256",
          "name": "bps",
          "type": "uint256"
        }
      ],
      "name": "setMaxLoanBpsOfTVL",
      "outputs": [],
      "stateMutability": "nonpayable",
      "type": "function"
    },
    {
      "inputs": [
        {
          "internalType": "bytes32",
          "name": "invoiceId",
          "type": "bytes32"
        },
        {
          "internalType": "enum RecourseMode",
          "name": "mode",
          "type": "uint8"
        }
      ],
      "name": "setPositionRecourseMode",
      "outputs": [],
      "stateMutability": "nonpayable",
      "type": "function"
    },
    {
      "inputs": [
        {
          "internalType": "uint256",
          "name": "bps",
          "type": "uint256"
        }
      ],
      "name": "setReserveTarget",
      "outputs": [],
      "stateMutability": "nonpayable",
      "type": "function"
    },
    {
      "inputs": [],
      "name": "sharePriceWad",
      "outputs": [
        {
          "internalType": "uint256",
          "name": "",
          "type": "uint256"
        }
      ],
      "stateMutability": "view",
      "type": "function"
    },
    {
      "inputs": [
        {
          "internalType": "bytes4",
          "name": "interfaceId",
          "type": "bytes4"
        }
      ],
      "name": "supportsInterface",
      "outputs": [
        {
          "internalType": "bool",
          "name": "",
          "type": "bool"
        }
      ],
      "stateMutability": "view",
      "type": "function"
    },
    {
      "inputs": [],
      "name": "totalBorrowed",
      "outputs": [
        {
          "internalType": "uint256",
          "name": "",
          "type": "uint256"
        }
      ],
      "stateMutability": "view",
      "type": "function"
    },
    {
      "inputs": [],
      "name": "totalInterestAccrued",
      "outputs": [
        {
          "internalType": "uint256",
          "name": "",
          "type": "uint256"
        }
      ],
      "stateMutability": "view",
      "type": "function"
    },
    {
      "inputs": [
        {
          "internalType": "address",
          "name": "",
          "type": "address"
        }
      ],
      "name": "totalIssuerOutstanding",
      "outputs": [
        {
          "internalType": "uint256",
          "name": "",
          "type": "uint256"
        }
      ],
      "stateMutability": "view",
      "type": "function"
    },
    {
      "inputs": [],
      "name": "totalLiquidity",
      "outputs": [
        {
          "internalType": "uint256",
          "name": "",
          "type": "uint256"
        }
      ],
      "stateMutability": "view",
      "type": "function"
    },
    {
      "inputs": [],
      "name": "totalLosses",
      "outputs": [
        {
          "internalType": "uint256",
          "name": "",
          "type": "uint256"
        }
      ],
      "stateMutability": "view",
      "type": "function"
    },
    {
      "inputs": [],
      "name": "totalPrincipalOutstanding",
      "outputs": [
        {
          "internalType": "uint256",
          "name": "",
          "type": "uint256"
        }
      ],
      "stateMutability": "view",
      "type": "function"
    },
    {
      "inputs": [],
      "name": "unpause",
      "outputs": [],
      "stateMutability": "nonpayable",
      "type": "function"
    },
    {
      "inputs": [],
      "name": "utilization",
      "outputs": [
        {
          "internalType": "uint256",
          "name": "",
          "type": "uint256"
        }
      ],
      "stateMutability": "view",
      "type": "function"
    },
    {
      "inputs": [
        {
          "internalType": "uint256",
          "name": "lpShares",
          "type": "uint256"
        }
      ],
      "name": "withdraw",
      "outputs": [],
      "stateMutability": "nonpayable",
      "type": "function"
    },
    {
      "inputs": [
        {
          "internalType": "address",
          "name": "to",
          "type": "address"
        },
        {
          "internalType": "uint256",
          "name": "amount",
          "type": "uint256"
        }
      ],
      "name": "withdrawProtocolFees",
      "outputs": [],
      "stateMutability": "nonpayable",
      "type": "function"
    },
    {
      "inputs": [],
      "name": "writeDownBps",
      "outputs": [
        {
          "internalType": "uint256",
          "name": "",
          "type": "uint256"
        }
      ],
      "stateMutability": "view",
      "type": "function"
    },
    {
      "inputs": [
        {
          "internalType": "bytes32",
          "name": "invoiceId",
          "type": "bytes32"
        },
        {
          "internalType": "uint256",
          "name": "lossAmount",
          "type": "uint256"
        }
      ],
      "name": "writeDownLoss",
      "outputs": [],
      "stateMutability": "nonpayable",
      "type": "function"
    }
  ],
  "transactionHash": "0x66f3c533d8cf85511ba6f45916181078028ebb960509b1a17d3b5b32d180bc27",
  "args": [
    "0x843a450f972a3FC6Ed652C7585870f00D825db91",
    "0x9c9A84c92110d6831c7dc27389f0CD68636CEdFf",
    "0xf6a9A54bae45C807AEbC753D1176835dC2cFe9eE",
    "0x5E15Ba894AC71E0f031A5de6E7046F50f8F97958",
    6000,
    8000,
    "150000000000000000",
    1000
  ],
  "numDeployments": 1,
  "solcInputHash": "d465fc3532baaa25297e252c4fb5ba88",
  "bytecode": "0x60806040523480156200001157600080fd5b5060405162004e8f38038062004e8f8339810160408190526200003491620001ea565b60018055620000456000336200011e565b50620000727fa49807205ce4d355092ef5a8a18f56e8913cf4a201fbe287825b095693c21775336200011e565b50600280546001600160a01b03998a1661010002610100600160a81b0319909116179055600380549789166001600160a01b0319988916179055600480549689169688169690961790955560058054949097169390951692909217909455600793909355601192909255601a55601b5542601c5562093a8060155562278d00601655612710601755611f406018556117706019556101f46010556103e86012556109c46013556200026e565b6000828152602081815260408083206001600160a01b038516845290915281205460ff16620001c3576000838152602081815260408083206001600160a01b03861684529091529020805460ff191660011790556200017a3390565b6001600160a01b0316826001600160a01b0316847f2f8788117e7eff1d82e926ec794901d17c78024a50270940304540a733656f0d60405160405180910390a4506001620001c7565b5060005b92915050565b80516001600160a01b0381168114620001e557600080fd5b919050565b600080600080600080600080610100898b0312156200020857600080fd5b6200021389620001cd565b97506200022360208a01620001cd565b96506200023360408a01620001cd565b95506200024360608a01620001cd565b94506080890151935060a0890151925060c0890151915060e089015190509295985092959890939650565b614c11806200027e6000396000f3fe608060405234801561001057600080fd5b506004361061041c5760003560e01c8063671d0c771161022b578063ab79f0ff11610130578063d547741f116100b8578063ea21cd9211610087578063ea21cd92146108a7578063f0250732146108af578063f5b541a6146108b8578063fa1dc5b5146108cd578063fd84de9e146108d557600080fd5b8063d547741f14610865578063daf7959814610878578063dcae11c31461088b578063e2812b901461089e57600080fd5b8063b9ea3f34116100ff578063b9ea3f341461083a578063bf04820b14610842578063c1590cd71461084b578063c74f94e014610853578063cb73b4521461085c57600080fd5b8063ab79f0ff14610802578063b621e75a14610815578063b67f02321461081e578063b6b55f251461082757600080fd5b806391d14854116101b3578063a217fddf11610182578063a217fddf146107a7578063a437c12e146107af578063a65fefa4146107b8578063a84b3aaa146107c1578063aa4b3e4b146107ef57600080fd5b806391d148541461076f5780639befb13b146107825780639d62913b1461078b578063a10954fe1461079e57600080fd5b806375c54224116101fa57806375c542241461071b5780637a6ab93d1461072e5780637b103999146107415780637d079cef146107545780638456cb591461076757600080fd5b8063671d0c77146106e25780636d02815b146106eb57806374375359146106fe57806375b238fc1461070657600080fd5b8063248a9ca311610331578063464b5391116102b95780635c975abb116102885780635c975abb146106955780635e4e526a146106a05780635eed5e2c146106b35780635f96dc11146106c65780635fcbd285146106cf57600080fd5b8063464b5391146106415780634c19386c146106595780634de1f8df1461066257806352c337a61461067557600080fd5b8063304ea9cb11610300578063304ea9cb146105e957806335659fb8146105f257806336568abe146105fb5780633f4ba83a1461060e57806343cd8f7e1461061657600080fd5b8063248a9ca3146105985780632770c503146105bb5780632e1a7d4d146105c35780632f2ff15d146105d657600080fd5b8063122afc60116103b4578063191e6efd11610383578063191e6efd146105405780631928b3cb146105535780631a7a73c2146105735780631cd724ac146105865780631ce747b71461058f57600080fd5b8063122afc60146104bf57806313bccee4146104ec578063150b7a02146104ff57806315770f921461053757600080fd5b8063078fb4e3116103f0578063078fb4e3146104875780630a2bdbd3146104905780630e1a0399146104a35780630e9ae5b3146104b657600080fd5b80629cb25d146104215780630126c6061461043657806301ffc9a71461045157806303fd8e2814610474575b600080fd5b61043461042f366004614402565b6108e8565b005b61043e6109d9565b6040519081526020015b60405180910390f35b61046461045f36600461441b565b610ab5565b6040519015158152602001610448565b61043461048236600461445a565b610aec565b61043e60135481565b61043461049e366004614402565b61105e565b61043e6104b1366004614402565b6110a2565b61043e601a5481565b6104646104cd366004614402565b6000908152600660205260409020600c01546301000000900460ff1690565b6104346104fa366004614402565b61118c565b61051e61050d366004614493565b630a85bd0160e11b95945050505050565b6040516001600160e01b03199091168152602001610448565b61043e60085481565b61043461054e366004614532565b6111cc565b610566610561366004614402565b6114d4565b60405161044891906145a0565b61043461058136600461467d565b611610565b61043e600b5481565b61043e60165481565b61043e6105a6366004614402565b60009081526020819052604090206001015490565b61043e6117d7565b6104346105d1366004614402565b611887565b6104346105e43660046146a9565b611b24565b61043e60115481565b61043e601b5481565b6104346106093660046146a9565b611b4f565b610434611b82565b600454610629906001600160a01b031681565b6040516001600160a01b039091168152602001610448565b6002546106299061010090046001600160a01b031681565b61043e60095481565b6104346106703660046146ce565b611bd0565b61043e6106833660046146f7565b60146020526000908152604090205481565b60025460ff16610464565b61043e6106ae366004614402565b611eb9565b6104346106c1366004614402565b611f5a565b61043e601c5481565b600554610629906001600160a01b031681565b61043e60075481565b6104346106f9366004614714565b612148565b61043e612526565b61043e600080516020614b9c83398151915281565b610434610729366004614402565b6125d3565b61043461073c36600461445a565b6126f6565b600354610629906001600160a01b031681565b61043461076236600461445a565b612b12565b610434612d98565b61046461077d3660046146a9565b612de6565b61043e60155481565b610434610799366004614714565b612e0f565b61043e600f5481565b61043e600081565b61043e60195481565b61043e60175481565b6107d46107cf3660046146f7565b612f05565b60408051938452602084019290925290820152606001610448565b6104346107fd366004614402565b612f99565b610434610810366004614402565b613008565b61043e600e5481565b61043e60185481565b610434610835366004614402565b61325e565b61043e6133ed565b61043e600c5481565b61043e6133fc565b61043e60105481565b61043e600a5481565b6104346108733660046146a9565b613406565b610434610886366004614402565b61342b565b610434610899366004614714565b61368c565b61043e600d5481565b61043e613b59565b61043e60125481565b61043e600080516020614b7c83398151915281565b610434613b87565b6104346108e3366004614402565b613c7f565b610900600080516020614b9c83398151915233612de6565b8061091e575061091e600080516020614b7c83398151915233612de6565b6109435760405162461bcd60e51b815260040161093a90614736565b60405180910390fd5b6000818152600660205260409020600c8101546301000000900460ff1661097c5760405162461bcd60e51b815260040161093a9061476d565b600c8101805462ff000019166201000017905560018101546040516000919084907f745f5ca6db42e779578fe4ae71bafbe1513d6daf820184b16204080eebedd34c906109cc9085815260200190565b60405180910390a3505050565b600480546040516370a0823160e01b8152309281019290925260009182916001600160a01b0316906370a0823190602401602060405180830381865afa158015610a27573d6000803e3d6000fd5b505050506040513d601f19601f82011682018060405250810190610a4b91906147a4565b90506000600b54600a5483610a6091906147d3565b610a6a91906147d3565b905080600d541115610a7f5760009250505090565b600d54610a8c90826147e6565b905080600e541115610aa15760009250505090565b600e54610aae90826147e6565b9392505050565b60006001600160e01b03198216637965db0b60e01b1480610ae657506301ffc9a760e01b6001600160e01b03198316145b92915050565b610af4613cbf565b610afc613ce9565b6000838152600660205260409020600c01546301000000900460ff16610b345760405162461bcd60e51b815260040161093a9061476d565b6000838152600660205260409020600c015462010000900460ff1615610b6c5760405162461bcd60e51b815260040161093a906147f9565b600083815260066020526040902060028101546001600160a01b03163314610bd65760405162461bcd60e51b815260206004820152601a60248201527f46696e616e63696e67506f6f6c3a206e6f7420636f6d70616e79000000000000604482015260640161093a565b8060030154838260040154610beb91906147d3565b1115610c455760405162461bcd60e51b8152602060048201526024808201527f46696e616e63696e67506f6f6c3a20637265646974206c696d697420657863656044820152631959195960e21b606482015260840161093a565b6000610c4f612526565b905080841115610caf5760405162461bcd60e51b815260206004820152602560248201527f46696e616e63696e67506f6f6c3a20696e73756666696369656e74206c697175604482015264696469747960d81b606482015260840161093a565b6000610cb9613b59565b90506011548110610d455760408051828152602081018790527f2d16044101d212e4d2f6b7d4719f1f3cc7cde00da404c9adede08dba04724a51910160405180910390a160405162461bcd60e51b815260206004820152601960248201527f5554494c495a4154494f4e5f4c494d49545f5245414348454400000000000000604482015260640161093a565b6000610d4f6109d9565b9050600061271060125483610d649190614830565b610d6e9190614847565b905080871115610dfb57604080518881526020810183905289917fa3dbdc418fac127b6935a7f27db033b5659ab2de299a2cdf6c09b8946815e6ba910160405180910390a260405162461bcd60e51b815260206004820152601860248201527f4d41585f53494e474c455f4c4f414e5f45584345454445440000000000000000604482015260640161093a565b60028501546001600160a01b0316600081815260146020526040812054610e23908a906147d3565b9050600061271060135486610e389190614830565b610e429190614847565b905080821115610ed85760408051838152602081018390526001600160a01b038516917fa8465ca64948dec7521cda119ce15f0e3a8db64bcc37b1fe06e72268a4f57255910160405180910390a260405162461bcd60e51b815260206004820152601e60248201527f4953535545525f4558504f535552455f4c494d49545f45584345454445440000604482015260640161093a565b89886004016000828254610eec91906147d3565b9091555050426006890155600980548b9190600090610f0c9084906147d3565b9250508190555089600a6000828254610f2591906147d3565b90915550506001600160a01b038381166000908152601460205260409081902084905560048054915163a9059cbb60e01b81528c841691810191909152602481018d905291169063a9059cbb906044016020604051808303816000875af1158015610f94573d6000803e3d6000fd5b505050506040513d601f19601f82011682018060405250810190610fb89190614869565b610fd45760405162461bcd60e51b815260040161093a9061488b565b604080518b81526001600160a01b038b1660208201528c917f32441e74b4738f1f58d685158b060faa38603203e9187e326d889b7912b9a57b910160405180910390a2826001600160a01b0316600080516020614bbc8339815191528360405161104091815260200190565b60405180910390a2505050505050505061105960018055565b505050565b6000818152600660205260409020600c01546301000000900460ff166110965760405162461bcd60e51b815260040161093a9061476d565b61109f81613d0f565b50565b600080600560009054906101000a90046001600160a01b03166001600160a01b03166318160ddd6040518163ffffffff1660e01b8152600401602060405180830381865afa1580156110f8573d6000803e3d6000fd5b505050506040513d601f19601f8201168201806040525081019061111c91906147a4565b90506000811161116e5760405162461bcd60e51b815260206004820152601b60248201527f46696e616e63696e67506f6f6c3a206e6f204c50207368617265730000000000604482015260640161093a565b60006111786117d7565b90506111848482613e6a565b949350505050565b600080516020614b9c8339815191526111a481613e89565b6127108211156111c65760405162461bcd60e51b815260040161093a906148c2565b50601255565b6000828152600660205260409020600c01546301000000900460ff166112045760405162461bcd60e51b815260040161093a9061476d565b60008281526006602052604090206004810154156112815760405162461bcd60e51b815260206004820152603460248201527f46696e616e63696e67506f6f6c3a2063616e6e6f74206368616e6765206d6f64604482015273329030b33a32b91031b932b234ba10323930bbb760611b606482015260840161093a565b60028101546001600160a01b03163314806112af57506112af600080516020614b9c83398151915233612de6565b6112fb5760405162461bcd60e51b815260206004820152601d60248201527f46696e616e63696e67506f6f6c3a206e6f7420617574686f72697a6564000000604482015260640161093a565b60088101805483919060ff19166001838181111561131b5761131b614566565b0217905550600082600181111561133457611334614566565b036113ea576002546040516308475f7f60e41b81526004810185905260009161010090046001600160a01b031690638475f7f090602401600060405180830381865afa158015611388573d6000803e3d6000fd5b505050506040513d6000823e601f3d908101601f191682016040526113b09190810190614a02565b5050509050600061271060185483606001516113cc9190614830565b6113d69190614847565b600384015550506018546007820155611497565b6002546040516308475f7f60e41b81526004810185905260009161010090046001600160a01b031690638475f7f090602401600060405180830381865afa158015611439573d6000803e3d6000fd5b505050506040513d6000823e601f3d908101601f191682016040526114619190810190614a02565b50505090506000612710601954836060015161147d9190614830565b6114879190614847565b6003840155505060195460078201555b827f7d0c5b0d4bd1e708dfcb7018aec9cff3c052bb08a3bc938da3a13ebc494d2ad9836040516114c79190614acc565b60405180910390a2505050565b6114dc614355565b600082815260066020818152604092839020835161020081018552815481526001808301549382019390935260028201546001600160a01b0316948101949094526003810154606085015260048101546080850152600581015460a08501529182015460c0840152600782015460e0840152600882015461010084019160ff9091169081111561156e5761156e614566565b600181111561157f5761157f614566565b815260098201546020820152600a8201546040820152600b8201546060820152600c82015460ff8082161515608084015260a0909201916101009091041660038111156115ce576115ce614566565b60038111156115df576115df614566565b8152600c919091015460ff620100008204811615156020840152630100000090910416151560409091015292915050565b600080516020614b9c83398151915261162881613e89565b6001600160a01b03831661167e5760405162461bcd60e51b815260206004820152601e60248201527f46696e616e63696e67506f6f6c3a20696e76616c696420616464726573730000604482015260640161093a565b6000821161169e5760405162461bcd60e51b815260040161093a90614ada565b600e548211156116f05760405162461bcd60e51b815260206004820181905260248201527f46696e616e63696e67506f6f6c3a20696e73756666696369656e742066656573604482015260640161093a565b81600e600082825461170291906147e6565b90915550506004805460405163a9059cbb60e01b81526001600160a01b03868116938201939093526024810185905291169063a9059cbb906044016020604051808303816000875af115801561175c573d6000803e3d6000fd5b505050506040513d601f19601f820116820180604052508101906117809190614869565b61179c5760405162461bcd60e51b815260040161093a9061488b565b826001600160a01b03167fa087657e3d85162090ffd700fbfdf5070d816f63aa5da00063f6ffd369c8a6db836040516114c791815260200190565b600080600560009054906101000a90046001600160a01b03166001600160a01b03166318160ddd6040518163ffffffff1660e01b8152600401602060405180830381865afa15801561182d573d6000803e3d6000fd5b505050506040513d601f19601f8201168201806040525081019061185191906147a4565b90508060000361186a57670de0b6b3a764000091505090565b60006118746109d9565b90506118808183613e93565b9250505090565b61188f613cbf565b611897613ce9565b600081116118e75760405162461bcd60e51b815260206004820152601a60248201527f46696e616e63696e67506f6f6c3a207a65726f20736861726573000000000000604482015260640161093a565b60006118f1613b59565b905060115481106119505760405162461bcd60e51b815260206004820152602360248201527f46696e616e63696e67506f6f6c3a207574696c697a6174696f6e20746f6f20686044820152620d2ced60eb1b606482015260840161093a565b600061195b836110a2565b9050611965612526565b8111156119d15760405162461bcd60e51b815260206004820152603460248201527f46696e616e63696e67506f6f6c3a20696e73756666696369656e74206c6971756044820152731a591a5d1e48199bdc881dda5d1a191c985dd85b60621b606482015260840161093a565b80600860008282546119e391906147e6565b9091555050600554604051632770a7eb60e21b8152336004820152602481018590526001600160a01b0390911690639dc29fac90604401600060405180830381600087803b158015611a3457600080fd5b505af1158015611a48573d6000803e3d6000fd5b50506004805460405163a9059cbb60e01b81523392810192909252602482018590526001600160a01b0316925063a9059cbb91506044016020604051808303816000875af1158015611a9e573d6000803e3d6000fd5b505050506040513d601f19601f82011682018060405250810190611ac29190614869565b611ade5760405162461bcd60e51b815260040161093a9061488b565b604080518481526020810183905233917fb195a67e698c5700e4f48f7b7748dda3a206ee2767ef024b61a26d7b17b2d63a910160405180910390a2505061109f60018055565b600082815260208190526040902060010154611b3f81613e89565b611b498383613ea8565b50505050565b6001600160a01b0381163314611b785760405163334bd91960e11b815260040160405180910390fd5b6110598282613f3a565b600080516020614b9c833981519152611b9a81613e89565b611ba2613fa5565b60405133907f7ad28e69e140b6a700e01c343225b0dc7078e68583d56283e7917e07f811112390600090a250565b611be8600080516020614b9c83398151915233612de6565b80611c065750611c06600080516020614b7c83398151915233612de6565b611c225760405162461bcd60e51b815260040161093a90614736565b6000828152600660205260409020600c01546301000000900460ff16611c5a5760405162461bcd60e51b815260040161093a9061476d565b6000828152600660205260409020600c81015460ff16611cbc5760405162461bcd60e51b815260206004820152601d60248201527f46696e616e63696e67506f6f6c3a206e6f7420696e2064656661756c74000000604482015260640161093a565b6000600c820154610100900460ff166003811115611cdc57611cdc614566565b14611d295760405162461bcd60e51b815260206004820152601f60248201527f46696e616e63696e67506f6f6c3a20616c7265616479207265736f6c76656400604482015260640161093a565b6002826003811115611d3d57611d3d614566565b03611e61576001600882015460ff166001811115611d5d57611d5d614566565b14611dbc5760405162461bcd60e51b815260206004820152602960248201527f46696e616e63696e67506f6f6c3a2063616e6e6f7420777269746520646f776e604482015268207265636f7572736560b81b606482015260840161093a565b60165481600b0154611dce91906147d3565b421015611e2e5760405162461bcd60e51b815260206004820152602860248201527f46696e616e63696e67506f6f6c3a207265636f766572792077696e646f77206e6044820152671bdd08195b99195960c21b606482015260840161093a565b60006127106017548360040154611e459190614830565b611e4f9190614847565b9050611e5b8482613ff7565b50611e8c565b6001826003811115611e7557611e75614566565b03611e8c57600c8101805461ffff19166101001790555b600c8101805483919061ff001916610100836003811115611eaf57611eaf614566565b0217905550505050565b600080600560009054906101000a90046001600160a01b03166001600160a01b03166318160ddd6040518163ffffffff1660e01b8152600401602060405180830381865afa158015611f0f573d6000803e3d6000fd5b505050506040513d601f19601f82011682018060405250810190611f3391906147a4565b905080600003611f44575090919050565b6000611f4e6117d7565b90506111848482613e93565b611f72600080516020614b9c83398151915233612de6565b80611f905750611f90600080516020614b7c83398151915233612de6565b611fac5760405162461bcd60e51b815260040161093a90614736565b6000818152600660205260409020600c01546301000000900460ff16611fe45760405162461bcd60e51b815260040161093a9061476d565b6000818152600660205260409020600481015461203c5760405162461bcd60e51b8152602060048201526016602482015275119a5b985b98da5b99d41bdbdb0e881b9bc81919589d60521b604482015260640161093a565b80600901544210156120905760405162461bcd60e51b815260206004820152601a60248201527f46696e616e63696e67506f6f6c3a206e6f742079657420647565000000000000604482015260640161093a565b600a810154156120ee5760405162461bcd60e51b8152602060048201526024808201527f46696e616e63696e67506f6f6c3a20677261636520616c7265616479207374616044820152631c9d195960e21b606482015260840161093a565b6015546120fb90426147d3565b600a8201819055600982015460408051918252602082019290925283917f2eb509a226f0d9daea3e16cd84d6736057aa401a86ffe47681d5055a03115d2a91015b60405180910390a25050565b612150613cbf565b6000828152600660205260409020600c01546301000000900460ff166121885760405162461bcd60e51b815260040161093a9061476d565b6000828152600660205260409020600c015462010000900460ff16156121c05760405162461bcd60e51b815260040161093a906147f9565b600081116121e05760405162461bcd60e51b815260040161093a90614ada565b60008281526006602052604090206121f783613d0f565b60008160050154826004015461220d91906147d3565b9050600081841161221e5783612220565b815b600480546040516323b872dd60e01b81529293506001600160a01b0316916323b872dd916122549133913091879101614b11565b6020604051808303816000875af1158015612273573d6000803e3d6000fd5b505050506040513d601f19601f820116820180604052508101906122979190614869565b6122b35760405162461bcd60e51b815260040161093a9061488b565b6000836005015482116122c657816122cc565b83600501545b905060006122da82846147e6565b9050811561239157818560050160008282546122f691906147e6565b9250508190555081600b600082825461230f91906147e6565b92505081905550600061232483601b546142ad565b9050600061233282856147e6565b905081600e600082825461234691906147d3565b9091555050604080518581526020810184905290810182905289907f39304b35b867473cdadeb4f8a32cd3a55ae5e0ea5827cc39985ea0bc0204a8b39060600160405180910390a250505b80156124b057808560040160008282546123ab91906147e6565b9250508190555080600960008282546123c491906147e6565b9250508190555080600a60008282546123dd91906147e6565b909155505060028501546001600160a01b03166000818152601460205260409020548211612472576001600160a01b0381166000908152601460205260408120805484929061242d9084906147e6565b90915550506001600160a01b038116600081815260146020908152604091829020549151918252600080516020614bbc833981519152910160405180910390a26124ae565b6001600160a01b038116600081815260146020908152604080832083905551918252600080516020614bbc833981519152910160405180910390a25b505b6004850154156124c5574260068601556124cd565b600060068601555b867f88775d7d4609f2da00366e731b35c22c6f2c575aa16ead1e928da8d0c75dba4284876004015460405161250c929190918252602082015260400190565b60405180910390a2505050505061252260018055565b5050565b600480546040516370a0823160e01b8152309281019290925260009182916001600160a01b0316906370a0823190602401602060405180830381865afa158015612574573d6000803e3d6000fd5b505050506040513d601f19601f8201168201806040525081019061259891906147a4565b90506000600954600854116125ae5760006125be565b6009546008546125be91906147e6565b90508082106125cd5780611880565b50919050565b600080516020614b9c8339815191526125eb81613e89565b6000821161260b5760405162461bcd60e51b815260040161093a90614ada565b600480546040516323b872dd60e01b81526001600160a01b03909116916323b872dd9161263e9133913091889101614b11565b6020604051808303816000875af115801561265d573d6000803e3d6000fd5b505050506040513d601f19601f820116820180604052508101906126819190614869565b61269d5760405162461bcd60e51b815260040161093a9061488b565b81600f60008282546126af91906147d3565b9091555050600f546040805184815260208101929092527f36eeecd4650f8bd0f141b85d46c9279f125af40121719b96ff294e2bcd7abac691015b60405180910390a15050565b6002546040516331a9108f60e11b815260048101849052339161010090046001600160a01b031690636352211e90602401602060405180830381865afa158015612744573d6000803e3d6000fd5b505050506040513d601f19601f820116820180604052508101906127689190614b35565b6001600160a01b0316146127be5760405162461bcd60e51b815260206004820152601860248201527f46696e616e63696e67506f6f6c3a206e6f74206f776e65720000000000000000604482015260640161093a565b600254604051632142170760e11b81526101009091046001600160a01b0316906342842e0e906127f690339030908790600401614b11565b600060405180830381600087803b15801561281057600080fd5b505af1158015612824573d6000803e3d6000fd5b50506002546040516308475f7f60e41b815260048101879052600093506101009091046001600160a01b03169150638475f7f090602401600060405180830381865afa158015612878573d6000803e3d6000fd5b505050506040513d6000823e601f3d908101601f191682016040526128a09190810190614a02565b5050509050600061271060075483606001516128bc9190614830565b6128c69190614847565b9050604051806102000160405280868152602001858152602001846001600160a01b03168152602001828152602001600081526020016000815260200160008152602001600754815260200160018081111561292457612924614566565b81526020018360800151815260200160008152602001600081526020016000151581526020016000600381111561295d5761295d614566565b81526000602080830182905260016040938401819052898352600680835292849020855181559185015182820155928401516002820180546001600160a01b0319166001600160a01b03909216919091179055606084015160038201556080840151600482015560a0840151600582015560c08401519181019190915560e0830151600782015561010083015160088201805492939192909160ff19909116908381811115612a0e57612a0e614566565b02179055506101208201516009820155610140820151600a820155610160820151600b820155610180820151600c8201805491151560ff198316811782556101a08501519261ff001990911661ffff1990911617610100836003811115612a7757612a77614566565b02179055506101c0820151600c90910180546101e090930151151563010000000263ff0000001992151562010000029290921663ffff000019909316929092171790556007546040516001600160a01b03851691869188917fd59a70c2b6e0c19ba6ede4f662f7a1807013fa09c2d4b04b29a498dbf83586dd91612b0391878252602082015260400190565b60405180910390a45050505050565b336001600160a01b03821614612b6a5760405162461bcd60e51b815260206004820152601a60248201527f46696e616e63696e67506f6f6c3a206e6f7420636f6d70616e79000000000000604482015260640161093a565b6002546040516331a9108f60e11b815260048101849052309161010090046001600160a01b031690636352211e90602401602060405180830381865afa158015612bb8573d6000803e3d6000fd5b505050506040513d601f19601f82011682018060405250810190612bdc9190614b35565b6001600160a01b031614612c325760405162461bcd60e51b815260206004820152601e60248201527f46696e616e63696e67506f6f6c3a204e4654206e6f7420696e20706f6f6c0000604482015260640161093a565b6000838152600660205260409020600c01546301000000900460ff1615612caa5760405162461bcd60e51b815260206004820152602660248201527f46696e616e63696e67506f6f6c3a20706f736974696f6e20616c72656164792060448201526565786973747360d01b606482015260840161093a565b6002546040516308475f7f60e41b81526004810185905260009161010090046001600160a01b031690638475f7f090602401600060405180830381865afa158015612cf9573d6000803e3d6000fd5b505050506040513d6000823e601f3d908101601f19168201604052612d219190810190614a02565b50508151919250508414612d815760405162461bcd60e51b815260206004820152602160248201527f46696e616e63696e67506f6f6c3a20696e766f6963654964206d69736d6174636044820152600d60fb1b606482015260840161093a565b600061271060075483606001516128bc9190614830565b600080516020614b9c833981519152612db081613e89565b612db86142bc565b60405133907fd971f597c759bbab7e07dc9b98eed49a71a525608003fc6c2fba42483598470390600090a250565b6000918252602082815260408084206001600160a01b0393909316845291905290205460ff1690565b600080516020614b9c833981519152612e2781613e89565b612e2f613ce9565b6000838152600660205260409020600c01546301000000900460ff16612e675760405162461bcd60e51b815260040161093a9061476d565b60008381526006602052604090206001600882015460ff166001811115612e9057612e90614566565b14612efb5760405162461bcd60e51b815260206004820152603560248201527f46696e616e63696e67506f6f6c3a20757365207061795265636f7572736520666044820152746f72207265636f7572736520706f736974696f6e7360581b606482015260840161093a565b611b498484613ff7565b6005546040516370a0823160e01b81526001600160a01b03838116600483015260009283928392909116906370a0823190602401602060405180830381865afa158015612f56573d6000803e3d6000fd5b505050506040513d601f19601f82011682018060405250810190612f7a91906147a4565b9250612f846117d7565b9050612f908382613e6a565b91509193909250565b600080516020614b9c833981519152612fb181613e89565b612710821115612fd35760405162461bcd60e51b815260040161093a906148c2565b60108290556040518281527f68e87ba2994d4cc63ad7699158bfa8f7616d05c1ff164b57bb938313f418c87b906020016126ea565b613020600080516020614b9c83398151915233612de6565b8061303e575061303e600080516020614b7c83398151915233612de6565b61305a5760405162461bcd60e51b815260040161093a90614736565b6000818152600660205260409020600c8101546301000000900460ff166130935760405162461bcd60e51b815260040161093a9061476d565b600c81015462010000900460ff16156130be5760405162461bcd60e51b815260040161093a906147f9565b60048101541580156130d257506005810154155b61311e5760405162461bcd60e51b815260206004820152601d60248201527f46696e616e63696e67506f6f6c3a20646562742072656d61696e696e67000000604482015260640161093a565b600180820154600280840154600086815260066020819052604080832083815596870183905586850180546001600160a01b0319169055600387018390556004808801849055600588018490559187018390556007870183905560088701805460ff1916905560098701839055600a8701839055600b870192909255600c909501805463ffffffff1916905591549151632142170760e11b815292936001600160a01b0391821693610100909304909116916342842e0e916131e69130918691889101614b11565b600060405180830381600087803b15801561320057600080fd5b505af1158015613214573d6000803e3d6000fd5b50506040516001600160a01b03841681528492508691507fc5753cd1f210d822797c1672ed7bfe07dc5c6e2cb3dbcee4799913a59be8c26e9060200160405180910390a350505050565b613266613cbf565b61326e613ce9565b6000811161328e5760405162461bcd60e51b815260040161093a90614ada565b600480546040516323b872dd60e01b81526001600160a01b03909116916323b872dd916132c19133913091879101614b11565b6020604051808303816000875af11580156132e0573d6000803e3d6000fd5b505050506040513d601f19601f820116820180604052508101906133049190614869565b6133205760405162461bcd60e51b815260040161093a9061488b565b600061332b82611eb9565b9050816008600082825461333f91906147d3565b90915550506005546040516340c10f1960e01b8152336004820152602481018390526001600160a01b03909116906340c10f1990604401600060405180830381600087803b15801561339057600080fd5b505af11580156133a4573d6000803e3d6000fd5b505060408051858152602081018590523393507fb7cd4486a08dcd2bf7da217a07d1069da69db8ffb3518c7014d6e6d4d973a55292500160405180910390a25061109f60018055565b60006133f76117d7565b905090565b60006133f76109d9565b60008281526020819052604090206001015461342181613e89565b611b498383613f3a565b613433613ce9565b61344b600080516020614b9c83398151915233612de6565b806134695750613469600080516020614b7c83398151915233612de6565b6134855760405162461bcd60e51b815260040161093a90614736565b6000818152600660205260409020600c01546301000000900460ff166134bd5760405162461bcd60e51b815260040161093a9061476d565b600081815260066020526040902060048101546135155760405162461bcd60e51b8152602060048201526016602482015275119a5b985b98da5b99d41bdbdb0e881b9bc81919589d60521b604482015260640161093a565b600081600a0154116135695760405162461bcd60e51b815260206004820181905260248201527f46696e616e63696e67506f6f6c3a206772616365206e6f742073746172746564604482015260640161093a565b80600a01544210156135cb5760405162461bcd60e51b815260206004820152602560248201527f46696e616e63696e67506f6f6c3a20677261636520706572696f64206e6f7420604482015264195b99195960da1b606482015260840161093a565b600c81015460ff161561362a5760405162461bcd60e51b815260206004820152602160248201527f46696e616e63696e67506f6f6c3a20616c726561647920696e2064656661756c6044820152601d60fa1b606482015260840161093a565b600c8101805460ff1916600117905542600b820181905560088201546004830154600584015460405186947f28fb593b6ad1e8e940c7817f4ab5cc1b53e99829af58e68c209488947d71cf5b9461213c9460ff91909116939092909190614b52565b613694613cbf565b61369c613ce9565b6000828152600660205260409020600c01546301000000900460ff166136d45760405162461bcd60e51b815260040161093a9061476d565b600082815260066020526040812090600882015460ff1660018111156136fc576136fc614566565b146137495760405162461bcd60e51b815260206004820152601b60248201527f46696e616e63696e67506f6f6c3a206e6f74207265636f757273650000000000604482015260640161093a565b600c81015460ff1661379d5760405162461bcd60e51b815260206004820152601d60248201527f46696e616e63696e67506f6f6c3a206e6f7420696e2064656661756c74000000604482015260640161093a565b60028101546001600160a01b031633146137f95760405162461bcd60e51b815260206004820152601960248201527f46696e616e63696e67506f6f6c3a206e6f742069737375657200000000000000604482015260640161093a565b60008160050154826004015461380f91906147d3565b905060008184116138205783613822565b815b600480546040516323b872dd60e01b81529293506001600160a01b0316916323b872dd916138569133913091879101614b11565b6020604051808303816000875af1158015613875573d6000803e3d6000fd5b505050506040513d601f19601f820116820180604052508101906138999190614869565b6138b55760405162461bcd60e51b815260040161093a9061488b565b6000836005015482116138c857816138ce565b83600501545b905060006138dc82846147e6565b9050811561399357818560050160008282546138f891906147e6565b9250508190555081600b600082825461391191906147e6565b92505081905550600061392683601b546142ad565b9050600061393482856147e6565b905081600e600082825461394891906147d3565b9091555050604080518581526020810184905290810182905289907f39304b35b867473cdadeb4f8a32cd3a55ae5e0ea5827cc39985ea0bc0204a8b39060600160405180910390a250505b8015613ab257808560040160008282546139ad91906147e6565b9250508190555080600960008282546139c691906147e6565b9250508190555080600a60008282546139df91906147e6565b909155505060028501546001600160a01b03166000818152601460205260409020548211613a74576001600160a01b03811660009081526014602052604081208054849290613a2f9084906147e6565b90915550506001600160a01b038116600081815260146020908152604091829020549151918252600080516020614bbc833981519152910160405180910390a2613ab0565b6001600160a01b038116600081815260146020908152604080832083905551918252600080516020614bbc833981519152910160405180910390a25b505b6004850154158015613ac657506005850154155b15613add57600c8501805461ffff19166103001790555b6040805184815233602082018190529189917fbacd312a0dd03d572bff06095b4aab78e134aee62740dda25504f7444bd7aa57910160405180910390a3867f88775d7d4609f2da00366e731b35c22c6f2c575aa16ead1e928da8d0c75dba4284876004015460405161250c929190918252602082015260400190565b6000600854600003613b6b5750600090565b600854600954613b7d90612710614830565b6133f79190614847565b600080516020614b9c833981519152613b9f81613e89565b6000613ba96109d9565b9050600061271060105483613bbe9190614830565b613bc89190614847565b905080600f54108015613bdd57506000600e54115b15611059576000600f5482613bf291906147e6565b90506000600e548211613c055781613c09565b600e545b905080600e6000828254613c1d91906147e6565b9250508190555080600f6000828254613c3691906147d3565b9091555050600f546040805183815260208101929092527f36eeecd4650f8bd0f141b85d46c9279f125af40121719b96ff294e2bcd7abac6910160405180910390a15050505050565b600080516020614b9c833981519152613c9781613e89565b612710821115613cb95760405162461bcd60e51b815260040161093a906148c2565b50601355565b600260015403613ce257604051633ee5aeb560e01b815260040160405180910390fd5b6002600155565b60025460ff1615613d0d5760405163d93c066560e01b815260040160405180910390fd5b565b600081815260066020526040902060048101541580613d3057506006810154155b15613d39575050565b6000816006015442613d4b91906147e6565b905080600003613d5a57505050565b6000613d928360040154613d8d601a546301e13380670de0b6b3a764000087613d839190614830565b613d8d9190614847565b613e6a565b905080836005016000828254613da891906147d3565b9250508190555080600b6000828254613dc191906147d3565b9091555050426006840155600b5460405185917f0b320ff38540b6525aa1a9c5356993dee599155c20cce3cba7ad5f9edc20706591613e0891858252602082015260400190565b60405180910390a26000613e1a6109d9565b90506000613e266117d7565b60408051848152602081018390529192507fe3745d81d1057cc6022e5875c5c2f8442e2548bfa6ecf8f966861d179a3b188f910160405180910390a1505050505050565b6000670de0b6b3a7640000613e7f8385614830565b610aae9190614847565b61109f81336142f9565b600081613e7f670de0b6b3a764000085614830565b6000613eb48383612de6565b613f32576000838152602081815260408083206001600160a01b03861684529091529020805460ff19166001179055613eea3390565b6001600160a01b0316826001600160a01b0316847f2f8788117e7eff1d82e926ec794901d17c78024a50270940304540a733656f0d60405160405180910390a4506001610ae6565b506000610ae6565b6000613f468383612de6565b15613f32576000838152602081815260408083206001600160a01b0386168085529252808320805460ff1916905551339286917ff6391f5c32d9c69d2a47ea670b442974b53935d1edc7fd64eb21e047a839171b9190a4506001610ae6565b613fad614332565b6002805460ff191690557f5db9ee0a495bf2e6ff9c91a7834c1ba4fdd244a5e8aa4e537bd38aeae4b073aa335b6040516001600160a01b03909116815260200160405180910390a1565b600082815260066020526040902060048101548211156140675760405162461bcd60e51b815260206004820152602560248201527f46696e616e63696e67506f6f6c3a206c6f73732065786365656473207072696e60448201526418da5c185b60da1b606482015260840161093a565b60008083600f54106140975783600f600082825461408591906147e6565b90915550849250600091506140ae9050565b600f5491506140a682856147e6565b6000600f5590505b838360040160008282546140c291906147e6565b9250508190555083600960008282546140db91906147e6565b9250508190555083600a60008282546140f491906147e6565b9250508190555083600c600082825461410d91906147d3565b909155505060028301546001600160a01b031660008181526014602052604090205485116141a2576001600160a01b0381166000908152601460205260408120805487929061415d9084906147e6565b90915550506001600160a01b038116600081815260146020908152604091829020549151918252600080516020614bbc833981519152910160405180910390a26141de565b6001600160a01b038116600081815260146020908152604080832083905551918252600080516020614bbc833981519152910160405180910390a25b81156142515781600d60008282546141f691906147d3565b90915550600090506142066109d9565b905060006142126117d7565b60408051848152602081018390529192507fe3745d81d1057cc6022e5875c5c2f8442e2548bfa6ecf8f966861d179a3b188f910160405180910390a150505b600c8401805461ff0019166102001790556040805186815260208101859052808201849052905187917fd6d05695cca913dde6ce9dcbf8d90022355047c71c33b354b349d214e4ea7973919081900360600190a2505050505050565b6000612710613e7f8385614830565b6142c4613ce9565b6002805460ff191660011790557f62e78cea01bee320cd4e420270b5ea74000d11b0c9f74754ebdbfc544b05a258613fda3390565b6143038282612de6565b6125225760405163e2517d3f60e01b81526001600160a01b03821660048201526024810183905260440161093a565b60025460ff16613d0d57604051638dfc202b60e01b815260040160405180910390fd5b604051806102000160405280600080191681526020016000815260200160006001600160a01b031681526020016000815260200160008152602001600081526020016000815260200160008152602001600060018111156143b8576143b8614566565b8152602001600081526020016000815260200160008152602001600015158152602001600060038111156143ee576143ee614566565b815260006020820181905260409091015290565b60006020828403121561441457600080fd5b5035919050565b60006020828403121561442d57600080fd5b81356001600160e01b031981168114610aae57600080fd5b6001600160a01b038116811461109f57600080fd5b60008060006060848603121561446f57600080fd5b8335925060208401359150604084013561448881614445565b809150509250925092565b6000806000806000608086880312156144ab57600080fd5b85356144b681614445565b945060208601356144c681614445565b935060408601359250606086013567ffffffffffffffff808211156144ea57600080fd5b818801915088601f8301126144fe57600080fd5b81358181111561450d57600080fd5b89602082850101111561451f57600080fd5b9699959850939650602001949392505050565b6000806040838503121561454557600080fd5b8235915060208301356002811061455b57600080fd5b809150509250929050565b634e487b7160e01b600052602160045260246000fd5b6002811061458c5761458c614566565b9052565b6004811061458c5761458c614566565b600061020082019050825182526020830151602083015260408301516145d160408401826001600160a01b03169052565b50606083015160608301526080830151608083015260a083015160a083015260c083015160c083015260e083015160e0830152610100808401516146178285018261457c565b5050610120838101519083015261014080840151908301526101608084015190830152610180808401511515908301526101a08084015161465a82850182614590565b50506101c0838101511515908301526101e0928301511515929091019190915290565b6000806040838503121561469057600080fd5b823561469b81614445565b946020939093013593505050565b600080604083850312156146bc57600080fd5b82359150602083013561455b81614445565b600080604083850312156146e157600080fd5b8235915060208301356004811061455b57600080fd5b60006020828403121561470957600080fd5b8135610aae81614445565b6000806040838503121561472757600080fd5b50508035926020909101359150565b6020808252601b908201527f46696e616e63696e67506f6f6c3a206d697373696e6720726f6c650000000000604082015260600190565b60208082526018908201527f46696e616e63696e67506f6f6c3a206e6f7420666f756e640000000000000000604082015260600190565b6000602082840312156147b657600080fd5b5051919050565b634e487b7160e01b600052601160045260246000fd5b80820180821115610ae657610ae66147bd565b81810381811115610ae657610ae66147bd565b60208082526019908201527f46696e616e63696e67506f6f6c3a206c69717569646174656400000000000000604082015260600190565b8082028115828204841417610ae657610ae66147bd565b60008261486457634e487b7160e01b600052601260045260246000fd5b500490565b60006020828403121561487b57600080fd5b81518015158114610aae57600080fd5b6020808252601e908201527f46696e616e63696e67506f6f6c3a207472616e73666572206661696c65640000604082015260600190565b6020808252601a908201527f46696e616e63696e67506f6f6c3a20696e76616c696420627073000000000000604082015260600190565b634e487b7160e01b600052604160045260246000fd5b60405160c0810167ffffffffffffffff81118282101715614932576149326148f9565b60405290565b604051601f8201601f1916810167ffffffffffffffff81118282101715614961576149616148f9565b604052919050565b80516007811061497857600080fd5b919050565b600082601f83011261498e57600080fd5b815167ffffffffffffffff8111156149a8576149a86148f9565b60206149bc601f8301601f19168201614938565b82815285828487010111156149d057600080fd5b60005b838110156149ee5785810183015182820184015282016149d3565b506000928101909101919091529392505050565b600080600080848603610120811215614a1a57600080fd5b60c0811215614a2857600080fd5b50614a3161490f565b855181526020860151614a4381614445565b60208201526040860151614a5681614445565b80604083015250606086015160608201526080860151608082015260a0860151614a7f81614445565b60a08201529350614a9260c08601614969565b925060e085015167ffffffffffffffff811115614aae57600080fd5b614aba8782880161497d565b61010096909601519497939650505050565b60208101610ae6828461457c565b6020808252601a908201527f46696e616e63696e67506f6f6c3a207a65726f20616d6f756e74000000000000604082015260600190565b6001600160a01b039384168152919092166020820152604081019190915260600190565b600060208284031215614b4757600080fd5b8151610aae81614445565b60808101614b60828761457c565b8460208301528360408301528260608301529594505050505056fe97667070c54ef182b0f5858b034beac1b6f3089aa2d3188bb1e8929f4fa9b929a49807205ce4d355092ef5a8a18f56e8913cf4a201fbe287825b095693c21775333f088133eb54f5d899c6f7216ebc0a8dcdcf1256c328d75298eff49cad9947a264697066735822122014d1de0a839e528f4327a21d508798abaa426b864f38f7d9ee5b83a8092ad66264736f6c63430008140033",
  "devdoc": {
    "errors": {
      "AccessControlBadConfirmation()": [
        {
          "details": "The caller of a function is not the expected one. NOTE: Don't confuse with {AccessControlUnauthorizedAccount}."
        }
      ],
      "AccessControlUnauthorizedAccount(address,bytes32)": [
        {
          "details": "The `account` is missing a role."
        }
      ],
      "EnforcedPause()": [
        {
          "details": "The operation failed because the contract is paused."
        }
      ],
      "ExpectedPause()": [
        {
          "details": "The operation failed because the contract is not paused."
        }
      ],
      "ReentrancyGuardReentrantCall()": [
        {
          "details": "Unauthorized reentrant call."
        }
      ]
    },
    "events": {
      "Paused(address)": {
        "details": "Emitted when the pause is triggered by `account`."
      },
      "RoleAdminChanged(bytes32,bytes32,bytes32)": {
        "details": "Emitted when `newAdminRole` is set as ``role``'s admin role, replacing `previousAdminRole` `DEFAULT_ADMIN_ROLE` is the starting admin for all roles, despite {RoleAdminChanged} not being emitted to signal this."
      },
      "RoleGranted(bytes32,address,address)": {
        "details": "Emitted when `account` is granted `role`. `sender` is the account that originated the contract call. This account bears the admin role (for the granted role). Expected in cases where the role was granted using the internal {AccessControl-_grantRole}."
      },
      "RoleRevoked(bytes32,address,address)": {
        "details": "Emitted when `account` is revoked `role`. `sender` is the account that originated the contract call:   - if using `revokeRole`, it is the admin role bearer   - if using `renounceRole`, it is the role bearer (i.e. `account`)"
      },
      "Unpaused(address)": {
        "details": "Emitted when the pause is lifted by `account`."
      }
    },
    "kind": "dev",
    "methods": {
      "accrueInterest(bytes32)": {
        "params": {
          "invoiceId": "Position to accrue interest for"
        }
      },
      "availableLiquidity()": {
        "returns": {
          "_0": "Available liquidity = totalLiquidity - totalBorrowed"
        }
      },
      "calculateLPSharesForDeposit(uint256)": {
        "params": {
          "depositAmount": "Amount of liquidityToken being deposited"
        },
        "returns": {
          "_0": "LP shares to mint"
        }
      },
      "calculateWithdrawalAmount(uint256)": {
        "params": {
          "lpShares": "Amount of LP shares to burn"
        },
        "returns": {
          "_0": "Amount of liquidityToken to withdraw"
        }
      },
      "declareDefault(bytes32)": {
        "params": {
          "invoiceId": "Position to declare default"
        }
      },
      "deposit(uint256)": {
        "params": {
          "amount": "Amount of liquidityToken to deposit"
        }
      },
      "fundReserve(uint256)": {
        "params": {
          "amount": "Amount to add to reserve"
        }
      },
      "getLPPosition(address)": {
        "params": {
          "lp": "Address of LP"
        },
        "returns": {
          "lpShares": "Number of LP shares owned",
          "sharePrice": "Current price per LP share",
          "underlyingValue": "Value of LP shares in liquidityToken units"
        }
      },
      "getLPSharePrice()": {
        "returns": {
          "_0": "sharePriceWad Price per LP share in WAD (1e18 = 1.0)"
        }
      },
      "getNAV()": {
        "returns": {
          "_0": "NAV = cash + principalOutstanding + interestAccrued - losses - protocolFeesAccrued"
        }
      },
      "getRoleAdmin(bytes32)": {
        "details": "Returns the admin role that controls `role`. See {grantRole} and {revokeRole}. To change a role's admin, use {_setRoleAdmin}."
      },
      "grantRole(bytes32,address)": {
        "details": "Grants `role` to `account`. If `account` had not been already granted `role`, emits a {RoleGranted} event. Requirements: - the caller must have ``role``'s admin role. May emit a {RoleGranted} event."
      },
      "hasRole(bytes32,address)": {
        "details": "Returns `true` if `account` has been granted `role`."
      },
      "markOverdueAndStartGrace(bytes32)": {
        "params": {
          "invoiceId": "Position to mark overdue"
        }
      },
      "pause()": {
        "details": "Only ADMIN_ROLE can pause"
      },
      "paused()": {
        "details": "Returns true if the contract is paused, and false otherwise."
      },
      "payRecourse(bytes32,uint256)": {
        "params": {
          "amount": "Amount to pay",
          "invoiceId": "Position to pay recourse for"
        }
      },
      "recoverLockCollateral(bytes32,uint256,address)": {
        "details": "Recovery function: If NFT is already in Pool but position doesn't exist, this function can create the position. Only callable by the company address. This handles edge cases where NFT was transferred but lockCollateral failed."
      },
      "renounceRole(bytes32,address)": {
        "details": "Revokes `role` from the calling account. Roles are often managed via {grantRole} and {revokeRole}: this function's purpose is to provide a mechanism for accounts to lose their privileges if they are compromised (such as when a trusted device is misplaced). If the calling account had been revoked `role`, emits a {RoleRevoked} event. Requirements: - the caller must be `callerConfirmation`. May emit a {RoleRevoked} event."
      },
      "resolveDefault(bytes32,uint8)": {
        "params": {
          "invoiceId": "Position to resolve",
          "resolutionType": "RECOVERED, WRITTEN_DOWN, or RECOURSE_CLAIMED"
        }
      },
      "revokeRole(bytes32,address)": {
        "details": "Revokes `role` from `account`. If `account` had been granted `role`, emits a {RoleRevoked} event. Requirements: - the caller must have ``role``'s admin role. May emit a {RoleRevoked} event."
      },
      "setMaxIssuerExposureBps(uint256)": {
        "params": {
          "bps": "Basis points (e.g., 2500 = 25%)"
        }
      },
      "setMaxLoanBpsOfTVL(uint256)": {
        "params": {
          "bps": "Basis points (e.g., 1000 = 10%)"
        }
      },
      "setPositionRecourseMode(bytes32,uint8)": {
        "params": {
          "invoiceId": "Position to set mode for",
          "mode": "RECOURSE or NON_RECOURSE"
        }
      },
      "setReserveTarget(uint256)": {
        "params": {
          "bps": "Reserve target in basis points"
        }
      },
      "sharePriceWad()": {
        "returns": {
          "_0": "sharePriceWad Price per LP share in WAD"
        }
      },
      "supportsInterface(bytes4)": {
        "details": "Returns true if this contract implements the interface defined by `interfaceId`. See the corresponding https://eips.ethereum.org/EIPS/eip-165#how-interfaces-are-identified[ERC section] to learn more about how these ids are created. This function call must use less than 30 000 gas."
      },
      "unpause()": {
        "details": "Only ADMIN_ROLE can unpause"
      },
      "utilization()": {
        "returns": {
          "_0": "Utilization in basis points (e.g., 7500 = 75%)"
        }
      },
      "withdraw(uint256)": {
        "params": {
          "lpShares": "Amount of LP shares to burn"
        }
      },
      "withdrawProtocolFees(address,uint256)": {
        "params": {
          "amount": "Amount to withdraw",
          "to": "Address to receive fees"
        }
      },
      "writeDownLoss(bytes32,uint256)": {
        "params": {
          "invoiceId": "Position to write down",
          "lossAmount": "Amount to write down"
        }
      }
    },
    "version": 1
  },
  "userdoc": {
    "kind": "user",
    "methods": {
      "accrueInterest(bytes32)": {
        "notice": "Public function to accrue interest for a position (for testing/viewing)"
      },
      "availableLiquidity()": {
        "notice": "Calculate available liquidity for lending"
      },
      "calculateLPSharesForDeposit(uint256)": {
        "notice": "Calculate LP shares to mint for a given deposit amount"
      },
      "calculateWithdrawalAmount(uint256)": {
        "notice": "Calculate withdrawal amount for a given LP share amount"
      },
      "declareDefault(bytes32)": {
        "notice": "Declare default (only after grace period)"
      },
      "deposit(uint256)": {
        "notice": "Deposit liquidity into the pool and receive LP shares"
      },
      "fundReserve(uint256)": {
        "notice": "Fund reserve"
      },
      "getLPPosition(address)": {
        "notice": "Get LP position for an address"
      },
      "getLPSharePrice()": {
        "notice": "Calculate LP share price (NAV / total LP shares) in WAD"
      },
      "getNAV()": {
        "notice": "Calculate Net Asset Value (NAV) of the pool"
      },
      "markOverdueAndStartGrace(bytes32)": {
        "notice": "Mark position as overdue and start grace period"
      },
      "nav()": {
        "notice": "Alias for getNAV() for consistency"
      },
      "pause()": {
        "notice": "Pause all critical operations (emergency kill switch)"
      },
      "payRecourse(bytes32,uint256)": {
        "notice": "Pay recourse obligation (for RECOURSE mode)"
      },
      "resolveDefault(bytes32,uint8)": {
        "notice": "Resolve default (for NON_RECOURSE after recovery window)"
      },
      "routeProtocolFeesToReserve()": {
        "notice": "Route protocol fees to reserve until target met"
      },
      "setMaxIssuerExposureBps(uint256)": {
        "notice": "Set max issuer exposure (as % of NAV)"
      },
      "setMaxLoanBpsOfTVL(uint256)": {
        "notice": "Set max single loan size (as % of NAV)"
      },
      "setPositionRecourseMode(bytes32,uint8)": {
        "notice": "Set recourse mode for a position (can only be set before credit is drawn)"
      },
      "setReserveTarget(uint256)": {
        "notice": "Set reserve target"
      },
      "sharePriceWad()": {
        "notice": "Calculate LP share price in WAD"
      },
      "unpause()": {
        "notice": "Unpause all critical operations"
      },
      "utilization()": {
        "notice": "Calculate current pool utilization (borrowed / total liquidity)"
      },
      "withdraw(uint256)": {
        "notice": "Withdraw liquidity from the pool by burning LP shares"
      },
      "withdrawProtocolFees(address,uint256)": {
        "notice": "Withdraw protocol fees"
      },
      "writeDownLoss(bytes32,uint256)": {
        "notice": "Write down a loss (for defaults) - Updated to use loss waterfall"
      }
    },
    "version": 1
  },
  "storageLayout": {
    "storage": [
      {
        "astId": 27,
        "contract": "contracts/FinancingPool.sol:FinancingPool",
        "label": "_roles",
        "offset": 0,
        "slot": "0",
        "type": "t_mapping(t_bytes32,t_struct(RoleData)22_storage)"
      },
      {
        "astId": 2533,
        "contract": "contracts/FinancingPool.sol:FinancingPool",
        "label": "_status",
        "offset": 0,
        "slot": "1",
        "type": "t_uint256"
      },
      {
        "astId": 2423,
        "contract": "contracts/FinancingPool.sol:FinancingPool",
        "label": "_paused",
        "offset": 0,
        "slot": "2",
        "type": "t_bool"
      },
      {
        "astId": 7592,
        "contract": "contracts/FinancingPool.sol:FinancingPool",
        "label": "invoiceToken",
        "offset": 1,
        "slot": "2",
        "type": "t_contract(InvoiceToken)11293"
      },
      {
        "astId": 7595,
        "contract": "contracts/FinancingPool.sol:FinancingPool",
        "label": "registry",
        "offset": 0,
        "slot": "3",
        "type": "t_contract(InvoiceRegistry)10799"
      },
      {
        "astId": 7598,
        "contract": "contracts/FinancingPool.sol:FinancingPool",
        "label": "liquidityToken",
        "offset": 0,
        "slot": "4",
        "type": "t_contract(IERC20)1109"
      },
      {
        "astId": 7601,
        "contract": "contracts/FinancingPool.sol:FinancingPool",
        "label": "lpToken",
        "offset": 0,
        "slot": "5",
        "type": "t_contract(LPShareToken)11393"
      },
      {
        "astId": 7641,
        "contract": "contracts/FinancingPool.sol:FinancingPool",
        "label": "_positions",
        "offset": 0,
        "slot": "6",
        "type": "t_mapping(t_bytes32,t_struct(CollateralPosition)7636_storage)"
      },
      {
        "astId": 7643,
        "contract": "contracts/FinancingPool.sol:FinancingPool",
        "label": "defaultLtvBps",
        "offset": 0,
        "slot": "7",
        "type": "t_uint256"
      },
      {
        "astId": 7645,
        "contract": "contracts/FinancingPool.sol:FinancingPool",
        "label": "totalLiquidity",
        "offset": 0,
        "slot": "8",
        "type": "t_uint256"
      },
      {
        "astId": 7647,
        "contract": "contracts/FinancingPool.sol:FinancingPool",
        "label": "totalBorrowed",
        "offset": 0,
        "slot": "9",
        "type": "t_uint256"
      },
      {
        "astId": 7649,
        "contract": "contracts/FinancingPool.sol:FinancingPool",
        "label": "totalPrincipalOutstanding",
        "offset": 0,
        "slot": "10",
        "type": "t_uint256"
      },
      {
        "astId": 7651,
        "contract": "contracts/FinancingPool.sol:FinancingPool",
        "label": "totalInterestAccrued",
        "offset": 0,
        "slot": "11",
        "type": "t_uint256"
      },
      {
        "astId": 7653,
        "contract": "contracts/FinancingPool.sol:FinancingPool",
        "label": "totalLosses",
        "offset": 0,
        "slot": "12",
        "type": "t_uint256"
      },
      {
        "astId": 7655,
        "contract": "contracts/FinancingPool.sol:FinancingPool",
        "label": "lpLosses",
        "offset": 0,
        "slot": "13",
        "type": "t_uint256"
      },
      {
        "astId": 7657,
        "contract": "contracts/FinancingPool.sol:FinancingPool",
        "label": "protocolFeesAccrued",
        "offset": 0,
        "slot": "14",
        "type": "t_uint256"
      },
      {
        "astId": 7659,
        "contract": "contracts/FinancingPool.sol:FinancingPool",
        "label": "reserveBalance",
        "offset": 0,
        "slot": "15",
        "type": "t_uint256"
      },
      {
        "astId": 7661,
        "contract": "contracts/FinancingPool.sol:FinancingPool",
        "label": "reserveTargetBps",
        "offset": 0,
        "slot": "16",
        "type": "t_uint256"
      },
      {
        "astId": 7663,
        "contract": "contracts/FinancingPool.sol:FinancingPool",
        "label": "maxUtilizationBps",
        "offset": 0,
        "slot": "17",
        "type": "t_uint256"
      },
      {
        "astId": 7665,
        "contract": "contracts/FinancingPool.sol:FinancingPool",
        "label": "maxLoanBpsOfTVL",
        "offset": 0,
        "slot": "18",
        "type": "t_uint256"
      },
      {
        "astId": 7667,
        "contract": "contracts/FinancingPool.sol:FinancingPool",
        "label": "maxIssuerExposureBps",
        "offset": 0,
        "slot": "19",
        "type": "t_uint256"
      },
      {
        "astId": 7671,
        "contract": "contracts/FinancingPool.sol:FinancingPool",
        "label": "totalIssuerOutstanding",
        "offset": 0,
        "slot": "20",
        "type": "t_mapping(t_address,t_uint256)"
      },
      {
        "astId": 7673,
        "contract": "contracts/FinancingPool.sol:FinancingPool",
        "label": "gracePeriodSeconds",
        "offset": 0,
        "slot": "21",
        "type": "t_uint256"
      },
      {
        "astId": 7675,
        "contract": "contracts/FinancingPool.sol:FinancingPool",
        "label": "recoveryWindowSeconds",
        "offset": 0,
        "slot": "22",
        "type": "t_uint256"
      },
      {
        "astId": 7677,
        "contract": "contracts/FinancingPool.sol:FinancingPool",
        "label": "writeDownBps",
        "offset": 0,
        "slot": "23",
        "type": "t_uint256"
      },
      {
        "astId": 7679,
        "contract": "contracts/FinancingPool.sol:FinancingPool",
        "label": "maxLtvRecourseBps",
        "offset": 0,
        "slot": "24",
        "type": "t_uint256"
      },
      {
        "astId": 7681,
        "contract": "contracts/FinancingPool.sol:FinancingPool",
        "label": "maxLtvNonRecourseBps",
        "offset": 0,
        "slot": "25",
        "type": "t_uint256"
      },
      {
        "astId": 7683,
        "contract": "contracts/FinancingPool.sol:FinancingPool",
        "label": "borrowAprWad",
        "offset": 0,
        "slot": "26",
        "type": "t_uint256"
      },
      {
        "astId": 7685,
        "contract": "contracts/FinancingPool.sol:FinancingPool",
        "label": "protocolFeeBps",
        "offset": 0,
        "slot": "27",
        "type": "t_uint256"
      },
      {
        "astId": 7687,
        "contract": "contracts/FinancingPool.sol:FinancingPool",
        "label": "poolStartTime",
        "offset": 0,
        "slot": "28",
        "type": "t_uint256"
      }
    ],
    "types": {
      "t_address": {
        "encoding": "inplace",
        "label": "address",
        "numberOfBytes": "20"
      },
      "t_bool": {
        "encoding": "inplace",
        "label": "bool",
        "numberOfBytes": "1"
      },
      "t_bytes32": {
        "encoding": "inplace",
        "label": "bytes32",
        "numberOfBytes": "32"
      },
      "t_contract(IERC20)1109": {
        "encoding": "inplace",
        "label": "contract IERC20",
        "numberOfBytes": "20"
      },
      "t_contract(InvoiceRegistry)10799": {
        "encoding": "inplace",
        "label": "contract InvoiceRegistry",
        "numberOfBytes": "20"
      },
      "t_contract(InvoiceToken)11293": {
        "encoding": "inplace",
        "label": "contract InvoiceToken",
        "numberOfBytes": "20"
      },
      "t_contract(LPShareToken)11393": {
        "encoding": "inplace",
        "label": "contract LPShareToken",
        "numberOfBytes": "20"
      },
      "t_enum(DefaultResolution)11751": {
        "encoding": "inplace",
        "label": "enum DefaultResolution",
        "numberOfBytes": "1"
      },
      "t_enum(RecourseMode)11746": {
        "encoding": "inplace",
        "label": "enum RecourseMode",
        "numberOfBytes": "1"
      },
      "t_mapping(t_address,t_bool)": {
        "encoding": "mapping",
        "key": "t_address",
        "label": "mapping(address => bool)",
        "numberOfBytes": "32",
        "value": "t_bool"
      },
      "t_mapping(t_address,t_uint256)": {
        "encoding": "mapping",
        "key": "t_address",
        "label": "mapping(address => uint256)",
        "numberOfBytes": "32",
        "value": "t_uint256"
      },
      "t_mapping(t_bytes32,t_struct(CollateralPosition)7636_storage)": {
        "encoding": "mapping",
        "key": "t_bytes32",
        "label": "mapping(bytes32 => struct FinancingPool.CollateralPosition)",
        "numberOfBytes": "32",
        "value": "t_struct(CollateralPosition)7636_storage"
      },
      "t_mapping(t_bytes32,t_struct(RoleData)22_storage)": {
        "encoding": "mapping",
        "key": "t_bytes32",
        "label": "mapping(bytes32 => struct AccessControl.RoleData)",
        "numberOfBytes": "32",
        "value": "t_struct(RoleData)22_storage"
      },
      "t_struct(CollateralPosition)7636_storage": {
        "encoding": "inplace",
        "label": "struct FinancingPool.CollateralPosition",
        "members": [
          {
            "astId": 7603,
            "contract": "contracts/FinancingPool.sol:FinancingPool",
            "label": "invoiceId",
            "offset": 0,
            "slot": "0",
            "type": "t_bytes32"
          },
          {
            "astId": 7605,
            "contract": "contracts/FinancingPool.sol:FinancingPool",
            "label": "tokenId",
            "offset": 0,
            "slot": "1",
            "type": "t_uint256"
          },
          {
            "astId": 7607,
            "contract": "contracts/FinancingPool.sol:FinancingPool",
            "label": "company",
            "offset": 0,
            "slot": "2",
            "type": "t_address"
          },
          {
            "astId": 7609,
            "contract": "contracts/FinancingPool.sol:FinancingPool",
            "label": "maxCreditLine",
            "offset": 0,
            "slot": "3",
            "type": "t_uint256"
          },
          {
            "astId": 7611,
            "contract": "contracts/FinancingPool.sol:FinancingPool",
            "label": "usedCredit",
            "offset": 0,
            "slot": "4",
            "type": "t_uint256"
          },
          {
            "astId": 7613,
            "contract": "contracts/FinancingPool.sol:FinancingPool",
            "label": "interestAccrued",
            "offset": 0,
            "slot": "5",
            "type": "t_uint256"
          },
          {
            "astId": 7615,
            "contract": "contracts/FinancingPool.sol:FinancingPool",
            "label": "lastAccrualTs",
            "offset": 0,
            "slot": "6",
            "type": "t_uint256"
          },
          {
            "astId": 7617,
            "contract": "contracts/FinancingPool.sol:FinancingPool",
            "label": "ltvBps",
            "offset": 0,
            "slot": "7",
            "type": "t_uint256"
          },
          {
            "astId": 7620,
            "contract": "contracts/FinancingPool.sol:FinancingPool",
            "label": "recourseMode",
            "offset": 0,
            "slot": "8",
            "type": "t_enum(RecourseMode)11746"
          },
          {
            "astId": 7622,
            "contract": "contracts/FinancingPool.sol:FinancingPool",
            "label": "dueDate",
            "offset": 0,
            "slot": "9",
            "type": "t_uint256"
          },
          {
            "astId": 7624,
            "contract": "contracts/FinancingPool.sol:FinancingPool",
            "label": "graceEndsAt",
            "offset": 0,
            "slot": "10",
            "type": "t_uint256"
          },
          {
            "astId": 7626,
            "contract": "contracts/FinancingPool.sol:FinancingPool",
            "label": "defaultDeclaredAt",
            "offset": 0,
            "slot": "11",
            "type": "t_uint256"
          },
          {
            "astId": 7628,
            "contract": "contracts/FinancingPool.sol:FinancingPool",
            "label": "isInDefault",
            "offset": 0,
            "slot": "12",
            "type": "t_bool"
          },
          {
            "astId": 7631,
            "contract": "contracts/FinancingPool.sol:FinancingPool",
            "label": "resolution",
            "offset": 1,
            "slot": "12",
            "type": "t_enum(DefaultResolution)11751"
          },
          {
            "astId": 7633,
            "contract": "contracts/FinancingPool.sol:FinancingPool",
            "label": "liquidated",
            "offset": 2,
            "slot": "12",
            "type": "t_bool"
          },
          {
            "astId": 7635,
            "contract": "contracts/FinancingPool.sol:FinancingPool",
            "label": "exists",
            "offset": 3,
            "slot": "12",
            "type": "t_bool"
          }
        ],
        "numberOfBytes": "416"
      },
      "t_struct(RoleData)22_storage": {
        "encoding": "inplace",
        "label": "struct AccessControl.RoleData",
        "members": [
          {
            "astId": 19,
            "contract": "contracts/FinancingPool.sol:FinancingPool",
            "label": "hasRole",
            "offset": 0,
            "slot": "0",
            "type": "t_mapping(t_address,t_bool)"
          },
          {
            "astId": 21,
            "contract": "contracts/FinancingPool.sol:FinancingPool",
            "label": "adminRole",
            "offset": 0,
            "slot": "1",
            "type": "t_bytes32"
          }
        ],
        "numberOfBytes": "64"
      },
      "t_uint256": {
        "encoding": "inplace",
        "label": "uint256",
        "numberOfBytes": "32"
      }
    }
  }
}